{"abi":[{"inputs":[{"internalType":"uint256","name":"minimum","type":"uint256"},{"internalType":"address","name":"creator","type":"address"}],"stateMutability":"nonpayable","type":"constructor"},{"inputs":[{"internalType":"uint256","name":"index","type":"uint256"}],"name":"approveRequest","outputs":[],"stateMutability":"nonpayable","type":"function"},{"inputs":[{"internalType":"address","name":"","type":"address"}],"name":"approvers","outputs":[{"internalType":"bool","name":"","type":"bool"}],"stateMutability":"view","type":"function"},{"inputs":[],"name":"approversCount","outputs":[{"internalType":"uint256","name":"","type":"uint256"}],"stateMutability":"view","type":"function"},{"inputs":[],"name":"contribute","outputs":[],"stateMutability":"payable","type":"function"},{"inputs":[{"internalType":"string","name":"desc","type":"string"},{"internalType":"uint256","name":"value","type":"uint256"},{"internalType":"address payable","name":"recipient","type":"address"}],"name":"createRequest","outputs":[],"stateMutability":"nonpayable","type":"function"},{"inputs":[{"internalType":"uint256","name":"index","type":"uint256"}],"name":"finalizeRequest","outputs":[],"stateMutability":"nonpayable","type":"function"},{"inputs":[],"name":"manager","outputs":[{"internalType":"address","name":"","type":"address"}],"stateMutability":"view","type":"function"},{"inputs":[],"name":"minimumContribution","outputs":[{"internalType":"uint256","name":"","type":"uint256"}],"stateMutability":"view","type":"function"}],"devdoc":{"kind":"dev","methods":{},"version":1},"evm":{"assembly":"    /* \"Campaign.sol\":429:2278  contract Campaign{... */\n  mstore(0x40, 0x80)\n    /* \"Campaign.sol\":974:1092  constructor(uint minimum, address creator){... */\n  callvalue\n  dup1\n  iszero\n  tag_1\n  jumpi\n  0x00\n  dup1\n  revert\ntag_1:\n  pop\n  mload(0x40)\n  sub(codesize, bytecodeSize)\n  dup1\n  bytecodeSize\n  dup4\n  codecopy\n  dup2\n  dup2\n  add\n  0x40\n  mstore\n  dup2\n  add\n  swap1\n  tag_2\n  swap2\n  swap1\n  tag_3\n  jump\t// in\ntag_2:\n    /* \"Campaign.sol\":1037:1044  creator */\n  dup1\n    /* \"Campaign.sol\":1027:1034  manager */\n  0x02\n  0x00\n    /* \"Campaign.sol\":1027:1044  manager = creator */\n  0x0100\n  exp\n  dup2\n  sload\n  dup2\n  0xffffffffffffffffffffffffffffffffffffffff\n  mul\n  not\n  and\n  swap1\n  dup4\n  0xffffffffffffffffffffffffffffffffffffffff\n  and\n  mul\n  or\n  swap1\n  sstore\n  pop\n    /* \"Campaign.sol\":1077:1084  minimum */\n  dup2\n    /* \"Campaign.sol\":1055:1074  minimumContribution */\n  0x03\n    /* \"Campaign.sol\":1055:1084  minimumContribution = minimum */\n  dup2\n  swap1\n  sstore\n  pop\n    /* \"Campaign.sol\":974:1092  constructor(uint minimum, address creator){... */\n  pop\n  pop\n    /* \"Campaign.sol\":429:2278  contract Campaign{... */\n  jump(tag_6)\n    /* \"#utility.yul\":88:205   */\ntag_8:\n    /* \"#utility.yul\":197:198   */\n  0x00\n    /* \"#utility.yul\":194:195   */\n  dup1\n    /* \"#utility.yul\":187:199   */\n  revert\n    /* \"#utility.yul\":334:411   */\ntag_10:\n    /* \"#utility.yul\":371:378   */\n  0x00\n    /* \"#utility.yul\":400:405   */\n  dup2\n    /* \"#utility.yul\":389:405   */\n  swap1\n  pop\n    /* \"#utility.yul\":334:411   */\n  swap2\n  swap1\n  pop\n  jump\t// out\n    /* \"#utility.yul\":417:539   */\ntag_11:\n    /* \"#utility.yul\":490:514   */\n  tag_23\n    /* \"#utility.yul\":508:513   */\n  dup2\n    /* \"#utility.yul\":490:514   */\n  tag_10\n  jump\t// in\ntag_23:\n    /* \"#utility.yul\":483:488   */\n  dup2\n    /* \"#utility.yul\":480:515   */\n  eq\n    /* \"#utility.yul\":470:533   */\n  tag_24\n  jumpi\n    /* \"#utility.yul\":529:530   */\n  0x00\n    /* \"#utility.yul\":526:527   */\n  dup1\n    /* \"#utility.yul\":519:531   */\n  revert\n    /* \"#utility.yul\":470:533   */\ntag_24:\n    /* \"#utility.yul\":417:539   */\n  pop\n  jump\t// out\n    /* \"#utility.yul\":545:688   */\ntag_12:\n    /* \"#utility.yul\":602:607   */\n  0x00\n    /* \"#utility.yul\":633:639   */\n  dup2\n    /* \"#utility.yul\":627:640   */\n  mload\n    /* \"#utility.yul\":618:640   */\n  swap1\n  pop\n    /* \"#utility.yul\":649:682   */\n  tag_26\n    /* \"#utility.yul\":676:681   */\n  dup2\n    /* \"#utility.yul\":649:682   */\n  tag_11\n  jump\t// in\ntag_26:\n    /* \"#utility.yul\":545:688   */\n  swap3\n  swap2\n  pop\n  pop\n  jump\t// out\n    /* \"#utility.yul\":694:820   */\ntag_13:\n    /* \"#utility.yul\":731:738   */\n  0x00\n    /* \"#utility.yul\":771:813   */\n  0xffffffffffffffffffffffffffffffffffffffff\n    /* \"#utility.yul\":764:769   */\n  dup3\n    /* \"#utility.yul\":760:814   */\n  and\n    /* \"#utility.yul\":749:814   */\n  swap1\n  pop\n    /* \"#utility.yul\":694:820   */\n  swap2\n  swap1\n  pop\n  jump\t// out\n    /* \"#utility.yul\":826:922   */\ntag_14:\n    /* \"#utility.yul\":863:870   */\n  0x00\n    /* \"#utility.yul\":892:916   */\n  tag_29\n    /* \"#utility.yul\":910:915   */\n  dup3\n    /* \"#utility.yul\":892:916   */\n  tag_13\n  jump\t// in\ntag_29:\n    /* \"#utility.yul\":881:916   */\n  swap1\n  pop\n    /* \"#utility.yul\":826:922   */\n  swap2\n  swap1\n  pop\n  jump\t// out\n    /* \"#utility.yul\":928:1050   */\ntag_15:\n    /* \"#utility.yul\":1001:1025   */\n  tag_31\n    /* \"#utility.yul\":1019:1024   */\n  dup2\n    /* \"#utility.yul\":1001:1025   */\n  tag_14\n  jump\t// in\ntag_31:\n    /* \"#utility.yul\":994:999   */\n  dup2\n    /* \"#utility.yul\":991:1026   */\n  eq\n    /* \"#utility.yul\":981:1044   */\n  tag_32\n  jumpi\n    /* \"#utility.yul\":1040:1041   */\n  0x00\n    /* \"#utility.yul\":1037:1038   */\n  dup1\n    /* \"#utility.yul\":1030:1042   */\n  revert\n    /* \"#utility.yul\":981:1044   */\ntag_32:\n    /* \"#utility.yul\":928:1050   */\n  pop\n  jump\t// out\n    /* \"#utility.yul\":1056:1199   */\ntag_16:\n    /* \"#utility.yul\":1113:1118   */\n  0x00\n    /* \"#utility.yul\":1144:1150   */\n  dup2\n    /* \"#utility.yul\":1138:1151   */\n  mload\n    /* \"#utility.yul\":1129:1151   */\n  swap1\n  pop\n    /* \"#utility.yul\":1160:1193   */\n  tag_34\n    /* \"#utility.yul\":1187:1192   */\n  dup2\n    /* \"#utility.yul\":1160:1193   */\n  tag_15\n  jump\t// in\ntag_34:\n    /* \"#utility.yul\":1056:1199   */\n  swap3\n  swap2\n  pop\n  pop\n  jump\t// out\n    /* \"#utility.yul\":1205:1712   */\ntag_3:\n    /* \"#utility.yul\":1284:1290   */\n  0x00\n    /* \"#utility.yul\":1292:1298   */\n  dup1\n    /* \"#utility.yul\":1341:1343   */\n  0x40\n    /* \"#utility.yul\":1329:1338   */\n  dup4\n    /* \"#utility.yul\":1320:1327   */\n  dup6\n    /* \"#utility.yul\":1316:1339   */\n  sub\n    /* \"#utility.yul\":1312:1344   */\n  slt\n    /* \"#utility.yul\":1309:1428   */\n  iszero\n  tag_36\n  jumpi\n    /* \"#utility.yul\":1347:1426   */\n  tag_37\n  tag_8\n  jump\t// in\ntag_37:\n    /* \"#utility.yul\":1309:1428   */\ntag_36:\n    /* \"#utility.yul\":1467:1468   */\n  0x00\n    /* \"#utility.yul\":1492:1556   */\n  tag_38\n    /* \"#utility.yul\":1548:1555   */\n  dup6\n    /* \"#utility.yul\":1539:1545   */\n  dup3\n    /* \"#utility.yul\":1528:1537   */\n  dup7\n    /* \"#utility.yul\":1524:1546   */\n  add\n    /* \"#utility.yul\":1492:1556   */\n  tag_12\n  jump\t// in\ntag_38:\n    /* \"#utility.yul\":1482:1556   */\n  swap3\n  pop\n    /* \"#utility.yul\":1438:1566   */\n  pop\n    /* \"#utility.yul\":1605:1607   */\n  0x20\n    /* \"#utility.yul\":1631:1695   */\n  tag_39\n    /* \"#utility.yul\":1687:1694   */\n  dup6\n    /* \"#utility.yul\":1678:1684   */\n  dup3\n    /* \"#utility.yul\":1667:1676   */\n  dup7\n    /* \"#utility.yul\":1663:1685   */\n  add\n    /* \"#utility.yul\":1631:1695   */\n  tag_16\n  jump\t// in\ntag_39:\n    /* \"#utility.yul\":1621:1695   */\n  swap2\n  pop\n    /* \"#utility.yul\":1576:1705   */\n  pop\n    /* \"#utility.yul\":1205:1712   */\n  swap3\n  pop\n  swap3\n  swap1\n  pop\n  jump\t// out\n    /* \"Campaign.sol\":429:2278  contract Campaign{... */\ntag_6:\n  dataSize(sub_0)\n  dup1\n  dataOffset(sub_0)\n  0x00\n  codecopy\n  0x00\n  return\nstop\n\nsub_0: assembly {\n        /* \"Campaign.sol\":429:2278  contract Campaign{... */\n      mstore(0x40, 0x80)\n      jumpi(tag_1, lt(calldatasize, 0x04))\n      shr(0xe0, calldataload(0x00))\n      dup1\n      0x8a9cfd55\n      gt\n      tag_10\n      jumpi\n      dup1\n      0x8a9cfd55\n      eq\n      tag_6\n      jumpi\n      dup1\n      0x937e09b1\n      eq\n      tag_7\n      jumpi\n      dup1\n      0xd7bb99ba\n      eq\n      tag_8\n      jumpi\n      dup1\n      0xd7d1bbdb\n      eq\n      tag_9\n      jumpi\n      jump(tag_1)\n    tag_10:\n      dup1\n      0x03441006\n      eq\n      tag_2\n      jumpi\n      dup1\n      0x0a144391\n      eq\n      tag_3\n      jumpi\n      dup1\n      0x481c6a75\n      eq\n      tag_4\n      jumpi\n      dup1\n      0x82fde093\n      eq\n      tag_5\n      jumpi\n    tag_1:\n      0x00\n      dup1\n      revert\n        /* \"Campaign.sol\":1971:2271  function finalizeRequest(uint index) public restricted{... */\n    tag_2:\n      callvalue\n      dup1\n      iszero\n      tag_11\n      jumpi\n      0x00\n      dup1\n      revert\n    tag_11:\n      pop\n      tag_12\n      0x04\n      dup1\n      calldatasize\n      sub\n      dup2\n      add\n      swap1\n      tag_13\n      swap2\n      swap1\n      tag_14\n      jump\t// in\n    tag_13:\n      tag_15\n      jump\t// in\n    tag_12:\n      stop\n        /* \"Campaign.sol\":801:842  mapping(address => bool) public approvers */\n    tag_3:\n      callvalue\n      dup1\n      iszero\n      tag_16\n      jumpi\n      0x00\n      dup1\n      revert\n    tag_16:\n      pop\n      tag_17\n      0x04\n      dup1\n      calldatasize\n      sub\n      dup2\n      add\n      swap1\n      tag_18\n      swap2\n      swap1\n      tag_19\n      jump\t// in\n    tag_18:\n      tag_20\n      jump\t// in\n    tag_17:\n      mload(0x40)\n      tag_21\n      swap2\n      swap1\n      tag_22\n      jump\t// in\n    tag_21:\n      mload(0x40)\n      dup1\n      swap2\n      sub\n      swap1\n      return\n        /* \"Campaign.sol\":734:756  address public manager */\n    tag_4:\n      callvalue\n      dup1\n      iszero\n      tag_23\n      jumpi\n      0x00\n      dup1\n      revert\n    tag_23:\n      pop\n      tag_24\n      tag_25\n      jump\t// in\n    tag_24:\n      mload(0x40)\n      tag_26\n      swap2\n      swap1\n      tag_27\n      jump\t// in\n    tag_26:\n      mload(0x40)\n      dup1\n      swap2\n      sub\n      swap1\n      return\n        /* \"Campaign.sol\":849:875  uint public approversCount */\n    tag_5:\n      callvalue\n      dup1\n      iszero\n      tag_28\n      jumpi\n      0x00\n      dup1\n      revert\n    tag_28:\n      pop\n      tag_29\n      tag_30\n      jump\t// in\n    tag_29:\n      mload(0x40)\n      tag_31\n      swap2\n      swap1\n      tag_32\n      jump\t// in\n    tag_31:\n      mload(0x40)\n      dup1\n      swap2\n      sub\n      swap1\n      return\n        /* \"Campaign.sol\":1271:1678  function createRequest(string memory desc, uint value, address payable recipient) public restricted{... */\n    tag_6:\n      callvalue\n      dup1\n      iszero\n      tag_33\n      jumpi\n      0x00\n      dup1\n      revert\n    tag_33:\n      pop\n      tag_34\n      0x04\n      dup1\n      calldatasize\n      sub\n      dup2\n      add\n      swap1\n      tag_35\n      swap2\n      swap1\n      tag_36\n      jump\t// in\n    tag_35:\n      tag_37\n      jump\t// in\n    tag_34:\n      stop\n        /* \"Campaign.sol\":763:794  uint public minimumContribution */\n    tag_7:\n      callvalue\n      dup1\n      iszero\n      tag_38\n      jumpi\n      0x00\n      dup1\n      revert\n    tag_38:\n      pop\n      tag_39\n      tag_40\n      jump\t// in\n    tag_39:\n      mload(0x40)\n      tag_41\n      swap2\n      swap1\n      tag_32\n      jump\t// in\n    tag_41:\n      mload(0x40)\n      dup1\n      swap2\n      sub\n      swap1\n      return\n        /* \"Campaign.sol\":1100:1263  function contribute() public payable {... */\n    tag_8:\n      tag_42\n      tag_43\n      jump\t// in\n    tag_42:\n      stop\n        /* \"Campaign.sol\":1686:1963  function approveRequest(uint index) public {... */\n    tag_9:\n      callvalue\n      dup1\n      iszero\n      tag_44\n      jumpi\n      0x00\n      dup1\n      revert\n    tag_44:\n      pop\n      tag_45\n      0x04\n      dup1\n      calldatasize\n      sub\n      dup2\n      add\n      swap1\n      tag_46\n      swap2\n      swap1\n      tag_14\n      jump\t// in\n    tag_46:\n      tag_47\n      jump\t// in\n    tag_45:\n      stop\n        /* \"Campaign.sol\":1971:2271  function finalizeRequest(uint index) public restricted{... */\n    tag_15:\n        /* \"Campaign.sol\":938:945  manager */\n      0x02\n      0x00\n      swap1\n      sload\n      swap1\n      0x0100\n      exp\n      swap1\n      div\n      0xffffffffffffffffffffffffffffffffffffffff\n      and\n        /* \"Campaign.sol\":924:945  msg.sender == manager */\n      0xffffffffffffffffffffffffffffffffffffffff\n      and\n        /* \"Campaign.sol\":924:934  msg.sender */\n      caller\n        /* \"Campaign.sol\":924:945  msg.sender == manager */\n      0xffffffffffffffffffffffffffffffffffffffff\n      and\n      eq\n        /* \"Campaign.sol\":916:946  require(msg.sender == manager) */\n      tag_49\n      jumpi\n      0x00\n      dup1\n      revert\n    tag_49:\n        /* \"Campaign.sol\":2036:2059  Request storage request */\n      0x00\n        /* \"Campaign.sol\":2062:2070  requests */\n      0x01\n        /* \"Campaign.sol\":2062:2077  requests[index] */\n      0x00\n        /* \"Campaign.sol\":2071:2076  index */\n      dup4\n        /* \"Campaign.sol\":2062:2077  requests[index] */\n      dup2\n      mstore\n      0x20\n      add\n      swap1\n      dup2\n      mstore\n      0x20\n      add\n      0x00\n      keccak256\n        /* \"Campaign.sol\":2036:2077  Request storage request = requests[index] */\n      swap1\n      pop\n        /* \"Campaign.sol\":2135:2136  2 */\n      0x02\n        /* \"Campaign.sol\":2120:2134  approversCount */\n      sload(0x05)\n        /* \"Campaign.sol\":2120:2136  approversCount/2 */\n      tag_51\n      swap2\n      swap1\n      tag_52\n      jump\t// in\n    tag_51:\n        /* \"Campaign.sol\":2096:2103  request */\n      dup2\n        /* \"Campaign.sol\":2096:2117  request.approvalCount */\n      0x04\n      add\n      sload\n        /* \"Campaign.sol\":2096:2136  request.approvalCount > approversCount/2 */\n      gt\n        /* \"Campaign.sol\":2088:2137  require(request.approvalCount > approversCount/2) */\n      tag_53\n      jumpi\n      0x00\n      dup1\n      revert\n    tag_53:\n        /* \"Campaign.sol\":2157:2164  request */\n      dup1\n        /* \"Campaign.sol\":2157:2173  request.complete */\n      0x02\n      add\n      0x14\n      swap1\n      sload\n      swap1\n      0x0100\n      exp\n      swap1\n      div\n      0xff\n      and\n        /* \"Campaign.sol\":2156:2173  !request.complete */\n      iszero\n        /* \"Campaign.sol\":2148:2174  require(!request.complete) */\n      tag_54\n      jumpi\n      0x00\n      dup1\n      revert\n    tag_54:\n        /* \"Campaign.sol\":2185:2192  request */\n      dup1\n        /* \"Campaign.sol\":2185:2202  request.recipient */\n      0x02\n      add\n      0x00\n      swap1\n      sload\n      swap1\n      0x0100\n      exp\n      swap1\n      div\n      0xffffffffffffffffffffffffffffffffffffffff\n      and\n        /* \"Campaign.sol\":2185:2211  request.recipient.transfer */\n      0xffffffffffffffffffffffffffffffffffffffff\n      and\n        /* \"Campaign.sol\":2185:2227  request.recipient.transfer(request.amount) */\n      0x08fc\n        /* \"Campaign.sol\":2212:2219  request */\n      dup3\n        /* \"Campaign.sol\":2212:2226  request.amount */\n      0x01\n      add\n      sload\n        /* \"Campaign.sol\":2185:2227  request.recipient.transfer(request.amount) */\n      swap1\n      dup2\n      iszero\n      mul\n      swap1\n      mload(0x40)\n      0x00\n      mload(0x40)\n      dup1\n      dup4\n      sub\n      dup2\n      dup6\n      dup9\n      dup9\n      call\n      swap4\n      pop\n      pop\n      pop\n      pop\n      iszero\n      dup1\n      iszero\n      tag_56\n      jumpi\n      returndatasize\n      0x00\n      dup1\n      returndatacopy\n      revert(0x00, returndatasize)\n    tag_56:\n      pop\n        /* \"Campaign.sol\":2257:2261  true */\n      0x01\n        /* \"Campaign.sol\":2238:2245  request */\n      dup2\n        /* \"Campaign.sol\":2238:2254  request.complete */\n      0x02\n      add\n      0x14\n        /* \"Campaign.sol\":2238:2261  request.complete = true */\n      0x0100\n      exp\n      dup2\n      sload\n      dup2\n      0xff\n      mul\n      not\n      and\n      swap1\n      dup4\n      iszero\n      iszero\n      mul\n      or\n      swap1\n      sstore\n      pop\n        /* \"Campaign.sol\":2025:2271  {... */\n      pop\n        /* \"Campaign.sol\":1971:2271  function finalizeRequest(uint index) public restricted{... */\n      pop\n      jump\t// out\n        /* \"Campaign.sol\":801:842  mapping(address => bool) public approvers */\n    tag_20:\n      mstore(0x20, 0x04)\n      dup1\n      0x00\n      mstore\n      keccak256(0x00, 0x40)\n      0x00\n      swap2\n      pop\n      sload\n      swap1\n      0x0100\n      exp\n      swap1\n      div\n      0xff\n      and\n      dup2\n      jump\t// out\n        /* \"Campaign.sol\":734:756  address public manager */\n    tag_25:\n      0x02\n      0x00\n      swap1\n      sload\n      swap1\n      0x0100\n      exp\n      swap1\n      div\n      0xffffffffffffffffffffffffffffffffffffffff\n      and\n      dup2\n      jump\t// out\n        /* \"Campaign.sol\":849:875  uint public approversCount */\n    tag_30:\n      sload(0x05)\n      dup2\n      jump\t// out\n        /* \"Campaign.sol\":1271:1678  function createRequest(string memory desc, uint value, address payable recipient) public restricted{... */\n    tag_37:\n        /* \"Campaign.sol\":938:945  manager */\n      0x02\n      0x00\n      swap1\n      sload\n      swap1\n      0x0100\n      exp\n      swap1\n      div\n      0xffffffffffffffffffffffffffffffffffffffff\n      and\n        /* \"Campaign.sol\":924:945  msg.sender == manager */\n      0xffffffffffffffffffffffffffffffffffffffff\n      and\n        /* \"Campaign.sol\":924:934  msg.sender */\n      caller\n        /* \"Campaign.sol\":924:945  msg.sender == manager */\n      0xffffffffffffffffffffffffffffffffffffffff\n      and\n      eq\n        /* \"Campaign.sol\":916:946  require(msg.sender == manager) */\n      tag_58\n      jumpi\n      0x00\n      dup1\n      revert\n    tag_58:\n        /* \"Campaign.sol\":1389:1398  approvers */\n      0x04\n        /* \"Campaign.sol\":1389:1410  approvers[msg.sender] */\n      0x00\n        /* \"Campaign.sol\":1399:1409  msg.sender */\n      caller\n        /* \"Campaign.sol\":1389:1410  approvers[msg.sender] */\n      0xffffffffffffffffffffffffffffffffffffffff\n      and\n      0xffffffffffffffffffffffffffffffffffffffff\n      and\n      dup2\n      mstore\n      0x20\n      add\n      swap1\n      dup2\n      mstore\n      0x20\n      add\n      0x00\n      keccak256\n      0x00\n      swap1\n      sload\n      swap1\n      0x0100\n      exp\n      swap1\n      div\n      0xff\n      and\n        /* \"Campaign.sol\":1381:1411  require(approvers[msg.sender]) */\n      tag_60\n      jumpi\n      0x00\n      dup1\n      revert\n    tag_60:\n        /* \"Campaign.sol\":1422:1448  Request storage newRequest */\n      0x00\n        /* \"Campaign.sol\":1451:1459  requests */\n      0x01\n        /* \"Campaign.sol\":1451:1474  requests[numRequests++] */\n      0x00\n        /* \"Campaign.sol\":1460:1471  numRequests */\n      dup1\n      0x00\n        /* \"Campaign.sol\":1460:1473  numRequests++ */\n      dup2\n      sload\n      dup1\n      swap3\n      swap2\n      swap1\n      tag_61\n      swap1\n      tag_62\n      jump\t// in\n    tag_61:\n      swap2\n      swap1\n      pop\n      sstore\n        /* \"Campaign.sol\":1451:1474  requests[numRequests++] */\n      dup2\n      mstore\n      0x20\n      add\n      swap1\n      dup2\n      mstore\n      0x20\n      add\n      0x00\n      keccak256\n        /* \"Campaign.sol\":1422:1474  Request storage newRequest = requests[numRequests++] */\n      swap1\n      pop\n        /* \"Campaign.sol\":1510:1514  desc */\n      dup4\n        /* \"Campaign.sol\":1485:1495  newRequest */\n      dup2\n        /* \"Campaign.sol\":1485:1507  newRequest.description */\n      0x00\n      add\n        /* \"Campaign.sol\":1485:1514  newRequest.description = desc */\n      swap1\n      dup1\n      mload\n      swap1\n      0x20\n      add\n      swap1\n      tag_63\n      swap3\n      swap2\n      swap1\n      tag_64\n      jump\t// in\n    tag_63:\n      pop\n        /* \"Campaign.sol\":1545:1550  value */\n      dup3\n        /* \"Campaign.sol\":1525:1535  newRequest */\n      dup2\n        /* \"Campaign.sol\":1525:1542  newRequest.amount */\n      0x01\n      add\n        /* \"Campaign.sol\":1525:1550  newRequest.amount = value */\n      dup2\n      swap1\n      sstore\n      pop\n        /* \"Campaign.sol\":1584:1593  recipient */\n      dup2\n        /* \"Campaign.sol\":1561:1571  newRequest */\n      dup2\n        /* \"Campaign.sol\":1561:1581  newRequest.recipient */\n      0x02\n      add\n      0x00\n        /* \"Campaign.sol\":1561:1593  newRequest.recipient = recipient */\n      0x0100\n      exp\n      dup2\n      sload\n      dup2\n      0xffffffffffffffffffffffffffffffffffffffff\n      mul\n      not\n      and\n      swap1\n      dup4\n      0xffffffffffffffffffffffffffffffffffffffff\n      and\n      mul\n      or\n      swap1\n      sstore\n      pop\n        /* \"Campaign.sol\":1626:1631  false */\n      0x00\n        /* \"Campaign.sol\":1604:1614  newRequest */\n      dup2\n        /* \"Campaign.sol\":1604:1623  newRequest.complete */\n      0x02\n      add\n      0x14\n        /* \"Campaign.sol\":1604:1631  newRequest.complete = false */\n      0x0100\n      exp\n      dup2\n      sload\n      dup2\n      0xff\n      mul\n      not\n      and\n      swap1\n      dup4\n      iszero\n      iszero\n      mul\n      or\n      swap1\n      sstore\n      pop\n        /* \"Campaign.sol\":1669:1670  0 */\n      0x00\n        /* \"Campaign.sol\":1642:1652  newRequest */\n      dup2\n        /* \"Campaign.sol\":1642:1666  newRequest.approvalCount */\n      0x04\n      add\n        /* \"Campaign.sol\":1642:1670  newRequest.approvalCount = 0 */\n      dup2\n      swap1\n      sstore\n      pop\n        /* \"Campaign.sol\":1370:1678  {... */\n      pop\n        /* \"Campaign.sol\":1271:1678  function createRequest(string memory desc, uint value, address payable recipient) public restricted{... */\n      pop\n      pop\n      pop\n      jump\t// out\n        /* \"Campaign.sol\":763:794  uint public minimumContribution */\n    tag_40:\n      sload(0x03)\n      dup2\n      jump\t// out\n        /* \"Campaign.sol\":1100:1263  function contribute() public payable {... */\n    tag_43:\n        /* \"Campaign.sol\":1169:1188  minimumContribution */\n      sload(0x03)\n        /* \"Campaign.sol\":1156:1165  msg.value */\n      callvalue\n        /* \"Campaign.sol\":1156:1188  msg.value >= minimumContribution */\n      lt\n      iszero\n        /* \"Campaign.sol\":1148:1189  require(msg.value >= minimumContribution) */\n      tag_66\n      jumpi\n      0x00\n      dup1\n      revert\n    tag_66:\n        /* \"Campaign.sol\":1224:1228  true */\n      0x01\n        /* \"Campaign.sol\":1200:1209  approvers */\n      0x04\n        /* \"Campaign.sol\":1200:1221  approvers[msg.sender] */\n      0x00\n        /* \"Campaign.sol\":1210:1220  msg.sender */\n      caller\n        /* \"Campaign.sol\":1200:1221  approvers[msg.sender] */\n      0xffffffffffffffffffffffffffffffffffffffff\n      and\n      0xffffffffffffffffffffffffffffffffffffffff\n      and\n      dup2\n      mstore\n      0x20\n      add\n      swap1\n      dup2\n      mstore\n      0x20\n      add\n      0x00\n      keccak256\n      0x00\n        /* \"Campaign.sol\":1200:1228  approvers[msg.sender] = true */\n      0x0100\n      exp\n      dup2\n      sload\n      dup2\n      0xff\n      mul\n      not\n      and\n      swap1\n      dup4\n      iszero\n      iszero\n      mul\n      or\n      swap1\n      sstore\n      pop\n        /* \"Campaign.sol\":1239:1253  approversCount */\n      0x05\n      0x00\n        /* \"Campaign.sol\":1239:1255  approversCount++ */\n      dup2\n      sload\n      dup1\n      swap3\n      swap2\n      swap1\n      tag_67\n      swap1\n      tag_62\n      jump\t// in\n    tag_67:\n      swap2\n      swap1\n      pop\n      sstore\n      pop\n        /* \"Campaign.sol\":1100:1263  function contribute() public payable {... */\n      jump\t// out\n        /* \"Campaign.sol\":1686:1963  function approveRequest(uint index) public {... */\n    tag_47:\n        /* \"Campaign.sol\":1740:1763  Request storage request */\n      0x00\n        /* \"Campaign.sol\":1766:1774  requests */\n      0x01\n        /* \"Campaign.sol\":1766:1781  requests[index] */\n      0x00\n        /* \"Campaign.sol\":1775:1780  index */\n      dup4\n        /* \"Campaign.sol\":1766:1781  requests[index] */\n      dup2\n      mstore\n      0x20\n      add\n      swap1\n      dup2\n      mstore\n      0x20\n      add\n      0x00\n      keccak256\n        /* \"Campaign.sol\":1740:1781  Request storage request = requests[index] */\n      swap1\n      pop\n        /* \"Campaign.sol\":1800:1809  approvers */\n      0x04\n        /* \"Campaign.sol\":1800:1821  approvers[msg.sender] */\n      0x00\n        /* \"Campaign.sol\":1810:1820  msg.sender */\n      caller\n        /* \"Campaign.sol\":1800:1821  approvers[msg.sender] */\n      0xffffffffffffffffffffffffffffffffffffffff\n      and\n      0xffffffffffffffffffffffffffffffffffffffff\n      and\n      dup2\n      mstore\n      0x20\n      add\n      swap1\n      dup2\n      mstore\n      0x20\n      add\n      0x00\n      keccak256\n      0x00\n      swap1\n      sload\n      swap1\n      0x0100\n      exp\n      swap1\n      div\n      0xff\n      and\n        /* \"Campaign.sol\":1792:1822  require(approvers[msg.sender]) */\n      tag_69\n      jumpi\n      0x00\n      dup1\n      revert\n    tag_69:\n        /* \"Campaign.sol\":1842:1849  request */\n      dup1\n        /* \"Campaign.sol\":1842:1859  request.approvals */\n      0x03\n      add\n        /* \"Campaign.sol\":1842:1871  request.approvals[msg.sender] */\n      0x00\n        /* \"Campaign.sol\":1860:1870  msg.sender */\n      caller\n        /* \"Campaign.sol\":1842:1871  request.approvals[msg.sender] */\n      0xffffffffffffffffffffffffffffffffffffffff\n      and\n      0xffffffffffffffffffffffffffffffffffffffff\n      and\n      dup2\n      mstore\n      0x20\n      add\n      swap1\n      dup2\n      mstore\n      0x20\n      add\n      0x00\n      keccak256\n      0x00\n      swap1\n      sload\n      swap1\n      0x0100\n      exp\n      swap1\n      div\n      0xff\n      and\n        /* \"Campaign.sol\":1841:1871  !request.approvals[msg.sender] */\n      iszero\n        /* \"Campaign.sol\":1833:1872  require(!request.approvals[msg.sender]) */\n      tag_70\n      jumpi\n      0x00\n      dup1\n      revert\n    tag_70:\n        /* \"Campaign.sol\":1917:1921  true */\n      0x01\n        /* \"Campaign.sol\":1885:1892  request */\n      dup2\n        /* \"Campaign.sol\":1885:1902  request.approvals */\n      0x03\n      add\n        /* \"Campaign.sol\":1885:1914  request.approvals[msg.sender] */\n      0x00\n        /* \"Campaign.sol\":1903:1913  msg.sender */\n      caller\n        /* \"Campaign.sol\":1885:1914  request.approvals[msg.sender] */\n      0xffffffffffffffffffffffffffffffffffffffff\n      and\n      0xffffffffffffffffffffffffffffffffffffffff\n      and\n      dup2\n      mstore\n      0x20\n      add\n      swap1\n      dup2\n      mstore\n      0x20\n      add\n      0x00\n      keccak256\n      0x00\n        /* \"Campaign.sol\":1885:1921  request.approvals[msg.sender] = true */\n      0x0100\n      exp\n      dup2\n      sload\n      dup2\n      0xff\n      mul\n      not\n      and\n      swap1\n      dup4\n      iszero\n      iszero\n      mul\n      or\n      swap1\n      sstore\n      pop\n        /* \"Campaign.sol\":1932:1939  request */\n      dup1\n        /* \"Campaign.sol\":1932:1953  request.approvalCount */\n      0x04\n      add\n      0x00\n        /* \"Campaign.sol\":1932:1955  request.approvalCount++ */\n      dup2\n      sload\n      dup1\n      swap3\n      swap2\n      swap1\n      tag_71\n      swap1\n      tag_62\n      jump\t// in\n    tag_71:\n      swap2\n      swap1\n      pop\n      sstore\n      pop\n        /* \"Campaign.sol\":1729:1963  {... */\n      pop\n        /* \"Campaign.sol\":1686:1963  function approveRequest(uint index) public {... */\n      pop\n      jump\t// out\n    tag_64:\n      dup3\n      dup1\n      sload\n      tag_72\n      swap1\n      tag_73\n      jump\t// in\n    tag_72:\n      swap1\n      0x00\n      mstore\n      keccak256(0x00, 0x20)\n      swap1\n      0x1f\n      add\n      0x20\n      swap1\n      div\n      dup2\n      add\n      swap3\n      dup3\n      tag_75\n      jumpi\n      0x00\n      dup6\n      sstore\n      jump(tag_74)\n    tag_75:\n      dup3\n      0x1f\n      lt\n      tag_76\n      jumpi\n      dup1\n      mload\n      not(0xff)\n      and\n      dup4\n      dup1\n      add\n      or\n      dup6\n      sstore\n      jump(tag_74)\n    tag_76:\n      dup3\n      dup1\n      add\n      0x01\n      add\n      dup6\n      sstore\n      dup3\n      iszero\n      tag_74\n      jumpi\n      swap2\n      dup3\n      add\n    tag_77:\n      dup3\n      dup2\n      gt\n      iszero\n      tag_78\n      jumpi\n      dup3\n      mload\n      dup3\n      sstore\n      swap2\n      0x20\n      add\n      swap2\n      swap1\n      0x01\n      add\n      swap1\n      jump(tag_77)\n    tag_78:\n    tag_74:\n      pop\n      swap1\n      pop\n      tag_79\n      swap2\n      swap1\n      tag_80\n      jump\t// in\n    tag_79:\n      pop\n      swap1\n      jump\t// out\n    tag_80:\n    tag_81:\n      dup1\n      dup3\n      gt\n      iszero\n      tag_82\n      jumpi\n      0x00\n      dup2\n      0x00\n      swap1\n      sstore\n      pop\n      0x01\n      add\n      jump(tag_81)\n    tag_82:\n      pop\n      swap1\n      jump\t// out\n        /* \"#utility.yul\":7:82   */\n    tag_83:\n        /* \"#utility.yul\":40:46   */\n      0x00\n        /* \"#utility.yul\":73:75   */\n      0x40\n        /* \"#utility.yul\":67:76   */\n      mload\n        /* \"#utility.yul\":57:76   */\n      swap1\n      pop\n        /* \"#utility.yul\":7:82   */\n      swap1\n      jump\t// out\n        /* \"#utility.yul\":88:205   */\n    tag_84:\n        /* \"#utility.yul\":197:198   */\n      0x00\n        /* \"#utility.yul\":194:195   */\n      dup1\n        /* \"#utility.yul\":187:199   */\n      revert\n        /* \"#utility.yul\":211:328   */\n    tag_85:\n        /* \"#utility.yul\":320:321   */\n      0x00\n        /* \"#utility.yul\":317:318   */\n      dup1\n        /* \"#utility.yul\":310:322   */\n      revert\n        /* \"#utility.yul\":334:411   */\n    tag_86:\n        /* \"#utility.yul\":371:378   */\n      0x00\n        /* \"#utility.yul\":400:405   */\n      dup2\n        /* \"#utility.yul\":389:405   */\n      swap1\n      pop\n        /* \"#utility.yul\":334:411   */\n      swap2\n      swap1\n      pop\n      jump\t// out\n        /* \"#utility.yul\":417:539   */\n    tag_87:\n        /* \"#utility.yul\":490:514   */\n      tag_119\n        /* \"#utility.yul\":508:513   */\n      dup2\n        /* \"#utility.yul\":490:514   */\n      tag_86\n      jump\t// in\n    tag_119:\n        /* \"#utility.yul\":483:488   */\n      dup2\n        /* \"#utility.yul\":480:515   */\n      eq\n        /* \"#utility.yul\":470:533   */\n      tag_120\n      jumpi\n        /* \"#utility.yul\":529:530   */\n      0x00\n        /* \"#utility.yul\":526:527   */\n      dup1\n        /* \"#utility.yul\":519:531   */\n      revert\n        /* \"#utility.yul\":470:533   */\n    tag_120:\n        /* \"#utility.yul\":417:539   */\n      pop\n      jump\t// out\n        /* \"#utility.yul\":545:684   */\n    tag_88:\n        /* \"#utility.yul\":591:596   */\n      0x00\n        /* \"#utility.yul\":629:635   */\n      dup2\n        /* \"#utility.yul\":616:636   */\n      calldataload\n        /* \"#utility.yul\":607:636   */\n      swap1\n      pop\n        /* \"#utility.yul\":645:678   */\n      tag_122\n        /* \"#utility.yul\":672:677   */\n      dup2\n        /* \"#utility.yul\":645:678   */\n      tag_87\n      jump\t// in\n    tag_122:\n        /* \"#utility.yul\":545:684   */\n      swap3\n      swap2\n      pop\n      pop\n      jump\t// out\n        /* \"#utility.yul\":690:1019   */\n    tag_14:\n        /* \"#utility.yul\":749:755   */\n      0x00\n        /* \"#utility.yul\":798:800   */\n      0x20\n        /* \"#utility.yul\":786:795   */\n      dup3\n        /* \"#utility.yul\":777:784   */\n      dup5\n        /* \"#utility.yul\":773:796   */\n      sub\n        /* \"#utility.yul\":769:801   */\n      slt\n        /* \"#utility.yul\":766:885   */\n      iszero\n      tag_124\n      jumpi\n        /* \"#utility.yul\":804:883   */\n      tag_125\n      tag_84\n      jump\t// in\n    tag_125:\n        /* \"#utility.yul\":766:885   */\n    tag_124:\n        /* \"#utility.yul\":924:925   */\n      0x00\n        /* \"#utility.yul\":949:1002   */\n      tag_126\n        /* \"#utility.yul\":994:1001   */\n      dup5\n        /* \"#utility.yul\":985:991   */\n      dup3\n        /* \"#utility.yul\":974:983   */\n      dup6\n        /* \"#utility.yul\":970:992   */\n      add\n        /* \"#utility.yul\":949:1002   */\n      tag_88\n      jump\t// in\n    tag_126:\n        /* \"#utility.yul\":939:1002   */\n      swap2\n      pop\n        /* \"#utility.yul\":895:1012   */\n      pop\n        /* \"#utility.yul\":690:1019   */\n      swap3\n      swap2\n      pop\n      pop\n      jump\t// out\n        /* \"#utility.yul\":1025:1151   */\n    tag_89:\n        /* \"#utility.yul\":1062:1069   */\n      0x00\n        /* \"#utility.yul\":1102:1144   */\n      0xffffffffffffffffffffffffffffffffffffffff\n        /* \"#utility.yul\":1095:1100   */\n      dup3\n        /* \"#utility.yul\":1091:1145   */\n      and\n        /* \"#utility.yul\":1080:1145   */\n      swap1\n      pop\n        /* \"#utility.yul\":1025:1151   */\n      swap2\n      swap1\n      pop\n      jump\t// out\n        /* \"#utility.yul\":1157:1253   */\n    tag_90:\n        /* \"#utility.yul\":1194:1201   */\n      0x00\n        /* \"#utility.yul\":1223:1247   */\n      tag_129\n        /* \"#utility.yul\":1241:1246   */\n      dup3\n        /* \"#utility.yul\":1223:1247   */\n      tag_89\n      jump\t// in\n    tag_129:\n        /* \"#utility.yul\":1212:1247   */\n      swap1\n      pop\n        /* \"#utility.yul\":1157:1253   */\n      swap2\n      swap1\n      pop\n      jump\t// out\n        /* \"#utility.yul\":1259:1381   */\n    tag_91:\n        /* \"#utility.yul\":1332:1356   */\n      tag_131\n        /* \"#utility.yul\":1350:1355   */\n      dup2\n        /* \"#utility.yul\":1332:1356   */\n      tag_90\n      jump\t// in\n    tag_131:\n        /* \"#utility.yul\":1325:1330   */\n      dup2\n        /* \"#utility.yul\":1322:1357   */\n      eq\n        /* \"#utility.yul\":1312:1375   */\n      tag_132\n      jumpi\n        /* \"#utility.yul\":1371:1372   */\n      0x00\n        /* \"#utility.yul\":1368:1369   */\n      dup1\n        /* \"#utility.yul\":1361:1373   */\n      revert\n        /* \"#utility.yul\":1312:1375   */\n    tag_132:\n        /* \"#utility.yul\":1259:1381   */\n      pop\n      jump\t// out\n        /* \"#utility.yul\":1387:1526   */\n    tag_92:\n        /* \"#utility.yul\":1433:1438   */\n      0x00\n        /* \"#utility.yul\":1471:1477   */\n      dup2\n        /* \"#utility.yul\":1458:1478   */\n      calldataload\n        /* \"#utility.yul\":1449:1478   */\n      swap1\n      pop\n        /* \"#utility.yul\":1487:1520   */\n      tag_134\n        /* \"#utility.yul\":1514:1519   */\n      dup2\n        /* \"#utility.yul\":1487:1520   */\n      tag_91\n      jump\t// in\n    tag_134:\n        /* \"#utility.yul\":1387:1526   */\n      swap3\n      swap2\n      pop\n      pop\n      jump\t// out\n        /* \"#utility.yul\":1532:1861   */\n    tag_19:\n        /* \"#utility.yul\":1591:1597   */\n      0x00\n        /* \"#utility.yul\":1640:1642   */\n      0x20\n        /* \"#utility.yul\":1628:1637   */\n      dup3\n        /* \"#utility.yul\":1619:1626   */\n      dup5\n        /* \"#utility.yul\":1615:1638   */\n      sub\n        /* \"#utility.yul\":1611:1643   */\n      slt\n        /* \"#utility.yul\":1608:1727   */\n      iszero\n      tag_136\n      jumpi\n        /* \"#utility.yul\":1646:1725   */\n      tag_137\n      tag_84\n      jump\t// in\n    tag_137:\n        /* \"#utility.yul\":1608:1727   */\n    tag_136:\n        /* \"#utility.yul\":1766:1767   */\n      0x00\n        /* \"#utility.yul\":1791:1844   */\n      tag_138\n        /* \"#utility.yul\":1836:1843   */\n      dup5\n        /* \"#utility.yul\":1827:1833   */\n      dup3\n        /* \"#utility.yul\":1816:1825   */\n      dup6\n        /* \"#utility.yul\":1812:1834   */\n      add\n        /* \"#utility.yul\":1791:1844   */\n      tag_92\n      jump\t// in\n    tag_138:\n        /* \"#utility.yul\":1781:1844   */\n      swap2\n      pop\n        /* \"#utility.yul\":1737:1854   */\n      pop\n        /* \"#utility.yul\":1532:1861   */\n      swap3\n      swap2\n      pop\n      pop\n      jump\t// out\n        /* \"#utility.yul\":1867:1957   */\n    tag_93:\n        /* \"#utility.yul\":1901:1908   */\n      0x00\n        /* \"#utility.yul\":1944:1949   */\n      dup2\n        /* \"#utility.yul\":1937:1950   */\n      iszero\n        /* \"#utility.yul\":1930:1951   */\n      iszero\n        /* \"#utility.yul\":1919:1951   */\n      swap1\n      pop\n        /* \"#utility.yul\":1867:1957   */\n      swap2\n      swap1\n      pop\n      jump\t// out\n        /* \"#utility.yul\":1963:2072   */\n    tag_94:\n        /* \"#utility.yul\":2044:2065   */\n      tag_141\n        /* \"#utility.yul\":2059:2064   */\n      dup2\n        /* \"#utility.yul\":2044:2065   */\n      tag_93\n      jump\t// in\n    tag_141:\n        /* \"#utility.yul\":2039:2042   */\n      dup3\n        /* \"#utility.yul\":2032:2066   */\n      mstore\n        /* \"#utility.yul\":1963:2072   */\n      pop\n      pop\n      jump\t// out\n        /* \"#utility.yul\":2078:2288   */\n    tag_22:\n        /* \"#utility.yul\":2165:2169   */\n      0x00\n        /* \"#utility.yul\":2203:2205   */\n      0x20\n        /* \"#utility.yul\":2192:2201   */\n      dup3\n        /* \"#utility.yul\":2188:2206   */\n      add\n        /* \"#utility.yul\":2180:2206   */\n      swap1\n      pop\n        /* \"#utility.yul\":2216:2281   */\n      tag_143\n        /* \"#utility.yul\":2278:2279   */\n      0x00\n        /* \"#utility.yul\":2267:2276   */\n      dup4\n        /* \"#utility.yul\":2263:2280   */\n      add\n        /* \"#utility.yul\":2254:2260   */\n      dup5\n        /* \"#utility.yul\":2216:2281   */\n      tag_94\n      jump\t// in\n    tag_143:\n        /* \"#utility.yul\":2078:2288   */\n      swap3\n      swap2\n      pop\n      pop\n      jump\t// out\n        /* \"#utility.yul\":2294:2412   */\n    tag_95:\n        /* \"#utility.yul\":2381:2405   */\n      tag_145\n        /* \"#utility.yul\":2399:2404   */\n      dup2\n        /* \"#utility.yul\":2381:2405   */\n      tag_90\n      jump\t// in\n    tag_145:\n        /* \"#utility.yul\":2376:2379   */\n      dup3\n        /* \"#utility.yul\":2369:2406   */\n      mstore\n        /* \"#utility.yul\":2294:2412   */\n      pop\n      pop\n      jump\t// out\n        /* \"#utility.yul\":2418:2640   */\n    tag_27:\n        /* \"#utility.yul\":2511:2515   */\n      0x00\n        /* \"#utility.yul\":2549:2551   */\n      0x20\n        /* \"#utility.yul\":2538:2547   */\n      dup3\n        /* \"#utility.yul\":2534:2552   */\n      add\n        /* \"#utility.yul\":2526:2552   */\n      swap1\n      pop\n        /* \"#utility.yul\":2562:2633   */\n      tag_147\n        /* \"#utility.yul\":2630:2631   */\n      0x00\n        /* \"#utility.yul\":2619:2628   */\n      dup4\n        /* \"#utility.yul\":2615:2632   */\n      add\n        /* \"#utility.yul\":2606:2612   */\n      dup5\n        /* \"#utility.yul\":2562:2633   */\n      tag_95\n      jump\t// in\n    tag_147:\n        /* \"#utility.yul\":2418:2640   */\n      swap3\n      swap2\n      pop\n      pop\n      jump\t// out\n        /* \"#utility.yul\":2646:2764   */\n    tag_96:\n        /* \"#utility.yul\":2733:2757   */\n      tag_149\n        /* \"#utility.yul\":2751:2756   */\n      dup2\n        /* \"#utility.yul\":2733:2757   */\n      tag_86\n      jump\t// in\n    tag_149:\n        /* \"#utility.yul\":2728:2731   */\n      dup3\n        /* \"#utility.yul\":2721:2758   */\n      mstore\n        /* \"#utility.yul\":2646:2764   */\n      pop\n      pop\n      jump\t// out\n        /* \"#utility.yul\":2770:2992   */\n    tag_32:\n        /* \"#utility.yul\":2863:2867   */\n      0x00\n        /* \"#utility.yul\":2901:2903   */\n      0x20\n        /* \"#utility.yul\":2890:2899   */\n      dup3\n        /* \"#utility.yul\":2886:2904   */\n      add\n        /* \"#utility.yul\":2878:2904   */\n      swap1\n      pop\n        /* \"#utility.yul\":2914:2985   */\n      tag_151\n        /* \"#utility.yul\":2982:2983   */\n      0x00\n        /* \"#utility.yul\":2971:2980   */\n      dup4\n        /* \"#utility.yul\":2967:2984   */\n      add\n        /* \"#utility.yul\":2958:2964   */\n      dup5\n        /* \"#utility.yul\":2914:2985   */\n      tag_96\n      jump\t// in\n    tag_151:\n        /* \"#utility.yul\":2770:2992   */\n      swap3\n      swap2\n      pop\n      pop\n      jump\t// out\n        /* \"#utility.yul\":2998:3115   */\n    tag_97:\n        /* \"#utility.yul\":3107:3108   */\n      0x00\n        /* \"#utility.yul\":3104:3105   */\n      dup1\n        /* \"#utility.yul\":3097:3109   */\n      revert\n        /* \"#utility.yul\":3121:3238   */\n    tag_98:\n        /* \"#utility.yul\":3230:3231   */\n      0x00\n        /* \"#utility.yul\":3227:3228   */\n      dup1\n        /* \"#utility.yul\":3220:3232   */\n      revert\n        /* \"#utility.yul\":3244:3346   */\n    tag_99:\n        /* \"#utility.yul\":3285:3291   */\n      0x00\n        /* \"#utility.yul\":3336:3338   */\n      0x1f\n        /* \"#utility.yul\":3332:3339   */\n      not\n        /* \"#utility.yul\":3327:3329   */\n      0x1f\n        /* \"#utility.yul\":3320:3325   */\n      dup4\n        /* \"#utility.yul\":3316:3330   */\n      add\n        /* \"#utility.yul\":3312:3340   */\n      and\n        /* \"#utility.yul\":3302:3340   */\n      swap1\n      pop\n        /* \"#utility.yul\":3244:3346   */\n      swap2\n      swap1\n      pop\n      jump\t// out\n        /* \"#utility.yul\":3352:3532   */\n    tag_100:\n        /* \"#utility.yul\":3400:3477   */\n      0x4e487b7100000000000000000000000000000000000000000000000000000000\n        /* \"#utility.yul\":3397:3398   */\n      0x00\n        /* \"#utility.yul\":3390:3478   */\n      mstore\n        /* \"#utility.yul\":3497:3501   */\n      0x41\n        /* \"#utility.yul\":3494:3495   */\n      0x04\n        /* \"#utility.yul\":3487:3502   */\n      mstore\n        /* \"#utility.yul\":3521:3525   */\n      0x24\n        /* \"#utility.yul\":3518:3519   */\n      0x00\n        /* \"#utility.yul\":3511:3526   */\n      revert\n        /* \"#utility.yul\":3538:3819   */\n    tag_101:\n        /* \"#utility.yul\":3621:3648   */\n      tag_157\n        /* \"#utility.yul\":3643:3647   */\n      dup3\n        /* \"#utility.yul\":3621:3648   */\n      tag_99\n      jump\t// in\n    tag_157:\n        /* \"#utility.yul\":3613:3619   */\n      dup2\n        /* \"#utility.yul\":3609:3649   */\n      add\n        /* \"#utility.yul\":3751:3757   */\n      dup2\n        /* \"#utility.yul\":3739:3749   */\n      dup2\n        /* \"#utility.yul\":3736:3758   */\n      lt\n        /* \"#utility.yul\":3715:3733   */\n      0xffffffffffffffff\n        /* \"#utility.yul\":3703:3713   */\n      dup3\n        /* \"#utility.yul\":3700:3734   */\n      gt\n        /* \"#utility.yul\":3697:3759   */\n      or\n        /* \"#utility.yul\":3694:3782   */\n      iszero\n      tag_158\n      jumpi\n        /* \"#utility.yul\":3762:3780   */\n      tag_159\n      tag_100\n      jump\t// in\n    tag_159:\n        /* \"#utility.yul\":3694:3782   */\n    tag_158:\n        /* \"#utility.yul\":3802:3812   */\n      dup1\n        /* \"#utility.yul\":3798:3800   */\n      0x40\n        /* \"#utility.yul\":3791:3813   */\n      mstore\n        /* \"#utility.yul\":3581:3819   */\n      pop\n        /* \"#utility.yul\":3538:3819   */\n      pop\n      pop\n      jump\t// out\n        /* \"#utility.yul\":3825:3954   */\n    tag_102:\n        /* \"#utility.yul\":3859:3865   */\n      0x00\n        /* \"#utility.yul\":3886:3906   */\n      tag_161\n      tag_83\n      jump\t// in\n    tag_161:\n        /* \"#utility.yul\":3876:3906   */\n      swap1\n      pop\n        /* \"#utility.yul\":3915:3948   */\n      tag_162\n        /* \"#utility.yul\":3943:3947   */\n      dup3\n        /* \"#utility.yul\":3935:3941   */\n      dup3\n        /* \"#utility.yul\":3915:3948   */\n      tag_101\n      jump\t// in\n    tag_162:\n        /* \"#utility.yul\":3825:3954   */\n      swap2\n      swap1\n      pop\n      jump\t// out\n        /* \"#utility.yul\":3960:4268   */\n    tag_103:\n        /* \"#utility.yul\":4022:4026   */\n      0x00\n        /* \"#utility.yul\":4112:4130   */\n      0xffffffffffffffff\n        /* \"#utility.yul\":4104:4110   */\n      dup3\n        /* \"#utility.yul\":4101:4131   */\n      gt\n        /* \"#utility.yul\":4098:4154   */\n      iszero\n      tag_164\n      jumpi\n        /* \"#utility.yul\":4134:4152   */\n      tag_165\n      tag_100\n      jump\t// in\n    tag_165:\n        /* \"#utility.yul\":4098:4154   */\n    tag_164:\n        /* \"#utility.yul\":4172:4201   */\n      tag_166\n        /* \"#utility.yul\":4194:4200   */\n      dup3\n        /* \"#utility.yul\":4172:4201   */\n      tag_99\n      jump\t// in\n    tag_166:\n        /* \"#utility.yul\":4164:4201   */\n      swap1\n      pop\n        /* \"#utility.yul\":4256:4260   */\n      0x20\n        /* \"#utility.yul\":4250:4254   */\n      dup2\n        /* \"#utility.yul\":4246:4261   */\n      add\n        /* \"#utility.yul\":4238:4261   */\n      swap1\n      pop\n        /* \"#utility.yul\":3960:4268   */\n      swap2\n      swap1\n      pop\n      jump\t// out\n        /* \"#utility.yul\":4274:4428   */\n    tag_104:\n        /* \"#utility.yul\":4358:4364   */\n      dup3\n        /* \"#utility.yul\":4353:4356   */\n      dup2\n        /* \"#utility.yul\":4348:4351   */\n      dup4\n        /* \"#utility.yul\":4335:4365   */\n      calldatacopy\n        /* \"#utility.yul\":4420:4421   */\n      0x00\n        /* \"#utility.yul\":4411:4417   */\n      dup4\n        /* \"#utility.yul\":4406:4409   */\n      dup4\n        /* \"#utility.yul\":4402:4418   */\n      add\n        /* \"#utility.yul\":4395:4422   */\n      mstore\n        /* \"#utility.yul\":4274:4428   */\n      pop\n      pop\n      pop\n      jump\t// out\n        /* \"#utility.yul\":4434:4846   */\n    tag_105:\n        /* \"#utility.yul\":4512:4517   */\n      0x00\n        /* \"#utility.yul\":4537:4603   */\n      tag_169\n        /* \"#utility.yul\":4553:4602   */\n      tag_170\n        /* \"#utility.yul\":4595:4601   */\n      dup5\n        /* \"#utility.yul\":4553:4602   */\n      tag_103\n      jump\t// in\n    tag_170:\n        /* \"#utility.yul\":4537:4603   */\n      tag_102\n      jump\t// in\n    tag_169:\n        /* \"#utility.yul\":4528:4603   */\n      swap1\n      pop\n        /* \"#utility.yul\":4626:4632   */\n      dup3\n        /* \"#utility.yul\":4619:4624   */\n      dup2\n        /* \"#utility.yul\":4612:4633   */\n      mstore\n        /* \"#utility.yul\":4664:4668   */\n      0x20\n        /* \"#utility.yul\":4657:4662   */\n      dup2\n        /* \"#utility.yul\":4653:4669   */\n      add\n        /* \"#utility.yul\":4702:4705   */\n      dup5\n        /* \"#utility.yul\":4693:4699   */\n      dup5\n        /* \"#utility.yul\":4688:4691   */\n      dup5\n        /* \"#utility.yul\":4684:4700   */\n      add\n        /* \"#utility.yul\":4681:4706   */\n      gt\n        /* \"#utility.yul\":4678:4790   */\n      iszero\n      tag_171\n      jumpi\n        /* \"#utility.yul\":4709:4788   */\n      tag_172\n      tag_98\n      jump\t// in\n    tag_172:\n        /* \"#utility.yul\":4678:4790   */\n    tag_171:\n        /* \"#utility.yul\":4799:4840   */\n      tag_173\n        /* \"#utility.yul\":4833:4839   */\n      dup5\n        /* \"#utility.yul\":4828:4831   */\n      dup3\n        /* \"#utility.yul\":4823:4826   */\n      dup6\n        /* \"#utility.yul\":4799:4840   */\n      tag_104\n      jump\t// in\n    tag_173:\n        /* \"#utility.yul\":4518:4846   */\n      pop\n        /* \"#utility.yul\":4434:4846   */\n      swap4\n      swap3\n      pop\n      pop\n      pop\n      jump\t// out\n        /* \"#utility.yul\":4866:5206   */\n    tag_106:\n        /* \"#utility.yul\":4922:4927   */\n      0x00\n        /* \"#utility.yul\":4971:4974   */\n      dup3\n        /* \"#utility.yul\":4964:4968   */\n      0x1f\n        /* \"#utility.yul\":4956:4962   */\n      dup4\n        /* \"#utility.yul\":4952:4969   */\n      add\n        /* \"#utility.yul\":4948:4975   */\n      slt\n        /* \"#utility.yul\":4938:5060   */\n      tag_175\n      jumpi\n        /* \"#utility.yul\":4979:5058   */\n      tag_176\n      tag_97\n      jump\t// in\n    tag_176:\n        /* \"#utility.yul\":4938:5060   */\n    tag_175:\n        /* \"#utility.yul\":5096:5102   */\n      dup2\n        /* \"#utility.yul\":5083:5103   */\n      calldataload\n        /* \"#utility.yul\":5121:5200   */\n      tag_177\n        /* \"#utility.yul\":5196:5199   */\n      dup5\n        /* \"#utility.yul\":5188:5194   */\n      dup3\n        /* \"#utility.yul\":5181:5185   */\n      0x20\n        /* \"#utility.yul\":5173:5179   */\n      dup7\n        /* \"#utility.yul\":5169:5186   */\n      add\n        /* \"#utility.yul\":5121:5200   */\n      tag_105\n      jump\t// in\n    tag_177:\n        /* \"#utility.yul\":5112:5200   */\n      swap2\n      pop\n        /* \"#utility.yul\":4928:5206   */\n      pop\n        /* \"#utility.yul\":4866:5206   */\n      swap3\n      swap2\n      pop\n      pop\n      jump\t// out\n        /* \"#utility.yul\":5212:5316   */\n    tag_107:\n        /* \"#utility.yul\":5257:5264   */\n      0x00\n        /* \"#utility.yul\":5286:5310   */\n      tag_179\n        /* \"#utility.yul\":5304:5309   */\n      dup3\n        /* \"#utility.yul\":5286:5310   */\n      tag_89\n      jump\t// in\n    tag_179:\n        /* \"#utility.yul\":5275:5310   */\n      swap1\n      pop\n        /* \"#utility.yul\":5212:5316   */\n      swap2\n      swap1\n      pop\n      jump\t// out\n        /* \"#utility.yul\":5322:5460   */\n    tag_108:\n        /* \"#utility.yul\":5403:5435   */\n      tag_181\n        /* \"#utility.yul\":5429:5434   */\n      dup2\n        /* \"#utility.yul\":5403:5435   */\n      tag_107\n      jump\t// in\n    tag_181:\n        /* \"#utility.yul\":5396:5401   */\n      dup2\n        /* \"#utility.yul\":5393:5436   */\n      eq\n        /* \"#utility.yul\":5383:5454   */\n      tag_182\n      jumpi\n        /* \"#utility.yul\":5450:5451   */\n      0x00\n        /* \"#utility.yul\":5447:5448   */\n      dup1\n        /* \"#utility.yul\":5440:5452   */\n      revert\n        /* \"#utility.yul\":5383:5454   */\n    tag_182:\n        /* \"#utility.yul\":5322:5460   */\n      pop\n      jump\t// out\n        /* \"#utility.yul\":5466:5621   */\n    tag_109:\n        /* \"#utility.yul\":5520:5525   */\n      0x00\n        /* \"#utility.yul\":5558:5564   */\n      dup2\n        /* \"#utility.yul\":5545:5565   */\n      calldataload\n        /* \"#utility.yul\":5536:5565   */\n      swap1\n      pop\n        /* \"#utility.yul\":5574:5615   */\n      tag_184\n        /* \"#utility.yul\":5609:5614   */\n      dup2\n        /* \"#utility.yul\":5574:5615   */\n      tag_108\n      jump\t// in\n    tag_184:\n        /* \"#utility.yul\":5466:5621   */\n      swap3\n      swap2\n      pop\n      pop\n      jump\t// out\n        /* \"#utility.yul\":5627:6442   */\n    tag_36:\n        /* \"#utility.yul\":5722:5728   */\n      0x00\n        /* \"#utility.yul\":5730:5736   */\n      dup1\n        /* \"#utility.yul\":5738:5744   */\n      0x00\n        /* \"#utility.yul\":5787:5789   */\n      0x60\n        /* \"#utility.yul\":5775:5784   */\n      dup5\n        /* \"#utility.yul\":5766:5773   */\n      dup7\n        /* \"#utility.yul\":5762:5785   */\n      sub\n        /* \"#utility.yul\":5758:5790   */\n      slt\n        /* \"#utility.yul\":5755:5874   */\n      iszero\n      tag_186\n      jumpi\n        /* \"#utility.yul\":5793:5872   */\n      tag_187\n      tag_84\n      jump\t// in\n    tag_187:\n        /* \"#utility.yul\":5755:5874   */\n    tag_186:\n        /* \"#utility.yul\":5941:5942   */\n      0x00\n        /* \"#utility.yul\":5930:5939   */\n      dup5\n        /* \"#utility.yul\":5926:5943   */\n      add\n        /* \"#utility.yul\":5913:5944   */\n      calldataload\n        /* \"#utility.yul\":5971:5989   */\n      0xffffffffffffffff\n        /* \"#utility.yul\":5963:5969   */\n      dup2\n        /* \"#utility.yul\":5960:5990   */\n      gt\n        /* \"#utility.yul\":5957:6074   */\n      iszero\n      tag_188\n      jumpi\n        /* \"#utility.yul\":5993:6072   */\n      tag_189\n      tag_85\n      jump\t// in\n    tag_189:\n        /* \"#utility.yul\":5957:6074   */\n    tag_188:\n        /* \"#utility.yul\":6098:6161   */\n      tag_190\n        /* \"#utility.yul\":6153:6160   */\n      dup7\n        /* \"#utility.yul\":6144:6150   */\n      dup3\n        /* \"#utility.yul\":6133:6142   */\n      dup8\n        /* \"#utility.yul\":6129:6151   */\n      add\n        /* \"#utility.yul\":6098:6161   */\n      tag_106\n      jump\t// in\n    tag_190:\n        /* \"#utility.yul\":6088:6161   */\n      swap4\n      pop\n        /* \"#utility.yul\":5884:6171   */\n      pop\n        /* \"#utility.yul\":6210:6212   */\n      0x20\n        /* \"#utility.yul\":6236:6289   */\n      tag_191\n        /* \"#utility.yul\":6281:6288   */\n      dup7\n        /* \"#utility.yul\":6272:6278   */\n      dup3\n        /* \"#utility.yul\":6261:6270   */\n      dup8\n        /* \"#utility.yul\":6257:6279   */\n      add\n        /* \"#utility.yul\":6236:6289   */\n      tag_88\n      jump\t// in\n    tag_191:\n        /* \"#utility.yul\":6226:6289   */\n      swap3\n      pop\n        /* \"#utility.yul\":6181:6299   */\n      pop\n        /* \"#utility.yul\":6338:6340   */\n      0x40\n        /* \"#utility.yul\":6364:6425   */\n      tag_192\n        /* \"#utility.yul\":6417:6424   */\n      dup7\n        /* \"#utility.yul\":6408:6414   */\n      dup3\n        /* \"#utility.yul\":6397:6406   */\n      dup8\n        /* \"#utility.yul\":6393:6415   */\n      add\n        /* \"#utility.yul\":6364:6425   */\n      tag_109\n      jump\t// in\n    tag_192:\n        /* \"#utility.yul\":6354:6425   */\n      swap2\n      pop\n        /* \"#utility.yul\":6309:6435   */\n      pop\n        /* \"#utility.yul\":5627:6442   */\n      swap3\n      pop\n      swap3\n      pop\n      swap3\n      jump\t// out\n        /* \"#utility.yul\":6448:6628   */\n    tag_110:\n        /* \"#utility.yul\":6496:6573   */\n      0x4e487b7100000000000000000000000000000000000000000000000000000000\n        /* \"#utility.yul\":6493:6494   */\n      0x00\n        /* \"#utility.yul\":6486:6574   */\n      mstore\n        /* \"#utility.yul\":6593:6597   */\n      0x12\n        /* \"#utility.yul\":6590:6591   */\n      0x04\n        /* \"#utility.yul\":6583:6598   */\n      mstore\n        /* \"#utility.yul\":6617:6621   */\n      0x24\n        /* \"#utility.yul\":6614:6615   */\n      0x00\n        /* \"#utility.yul\":6607:6622   */\n      revert\n        /* \"#utility.yul\":6634:6814   */\n    tag_111:\n        /* \"#utility.yul\":6682:6759   */\n      0x4e487b7100000000000000000000000000000000000000000000000000000000\n        /* \"#utility.yul\":6679:6680   */\n      0x00\n        /* \"#utility.yul\":6672:6760   */\n      mstore\n        /* \"#utility.yul\":6779:6783   */\n      0x11\n        /* \"#utility.yul\":6776:6777   */\n      0x04\n        /* \"#utility.yul\":6769:6784   */\n      mstore\n        /* \"#utility.yul\":6803:6807   */\n      0x24\n        /* \"#utility.yul\":6800:6801   */\n      0x00\n        /* \"#utility.yul\":6793:6808   */\n      revert\n        /* \"#utility.yul\":6820:7005   */\n    tag_52:\n        /* \"#utility.yul\":6860:6861   */\n      0x00\n        /* \"#utility.yul\":6877:6897   */\n      tag_196\n        /* \"#utility.yul\":6895:6896   */\n      dup3\n        /* \"#utility.yul\":6877:6897   */\n      tag_86\n      jump\t// in\n    tag_196:\n        /* \"#utility.yul\":6872:6897   */\n      swap2\n      pop\n        /* \"#utility.yul\":6911:6931   */\n      tag_197\n        /* \"#utility.yul\":6929:6930   */\n      dup4\n        /* \"#utility.yul\":6911:6931   */\n      tag_86\n      jump\t// in\n    tag_197:\n        /* \"#utility.yul\":6906:6931   */\n      swap3\n      pop\n        /* \"#utility.yul\":6950:6951   */\n      dup3\n        /* \"#utility.yul\":6940:6975   */\n      tag_198\n      jumpi\n        /* \"#utility.yul\":6955:6973   */\n      tag_199\n      tag_110\n      jump\t// in\n    tag_199:\n        /* \"#utility.yul\":6940:6975   */\n    tag_198:\n        /* \"#utility.yul\":6997:6998   */\n      dup3\n        /* \"#utility.yul\":6994:6995   */\n      dup3\n        /* \"#utility.yul\":6990:6999   */\n      div\n        /* \"#utility.yul\":6985:6999   */\n      swap1\n      pop\n        /* \"#utility.yul\":6820:7005   */\n      swap3\n      swap2\n      pop\n      pop\n      jump\t// out\n        /* \"#utility.yul\":7011:7244   */\n    tag_62:\n        /* \"#utility.yul\":7050:7053   */\n      0x00\n        /* \"#utility.yul\":7073:7097   */\n      tag_201\n        /* \"#utility.yul\":7091:7096   */\n      dup3\n        /* \"#utility.yul\":7073:7097   */\n      tag_86\n      jump\t// in\n    tag_201:\n        /* \"#utility.yul\":7064:7097   */\n      swap2\n      pop\n        /* \"#utility.yul\":7119:7185   */\n      0xffffffffffffffffffffffffffffffffffffffffffffffffffffffffffffffff\n        /* \"#utility.yul\":7112:7117   */\n      dup3\n        /* \"#utility.yul\":7109:7186   */\n      sub\n        /* \"#utility.yul\":7106:7209   */\n      tag_202\n      jumpi\n        /* \"#utility.yul\":7189:7207   */\n      tag_203\n      tag_111\n      jump\t// in\n    tag_203:\n        /* \"#utility.yul\":7106:7209   */\n    tag_202:\n        /* \"#utility.yul\":7236:7237   */\n      0x01\n        /* \"#utility.yul\":7229:7234   */\n      dup3\n        /* \"#utility.yul\":7225:7238   */\n      add\n        /* \"#utility.yul\":7218:7238   */\n      swap1\n      pop\n        /* \"#utility.yul\":7011:7244   */\n      swap2\n      swap1\n      pop\n      jump\t// out\n        /* \"#utility.yul\":7250:7430   */\n    tag_112:\n        /* \"#utility.yul\":7298:7375   */\n      0x4e487b7100000000000000000000000000000000000000000000000000000000\n        /* \"#utility.yul\":7295:7296   */\n      0x00\n        /* \"#utility.yul\":7288:7376   */\n      mstore\n        /* \"#utility.yul\":7395:7399   */\n      0x22\n        /* \"#utility.yul\":7392:7393   */\n      0x04\n        /* \"#utility.yul\":7385:7400   */\n      mstore\n        /* \"#utility.yul\":7419:7423   */\n      0x24\n        /* \"#utility.yul\":7416:7417   */\n      0x00\n        /* \"#utility.yul\":7409:7424   */\n      revert\n        /* \"#utility.yul\":7436:7756   */\n    tag_73:\n        /* \"#utility.yul\":7480:7486   */\n      0x00\n        /* \"#utility.yul\":7517:7518   */\n      0x02\n        /* \"#utility.yul\":7511:7515   */\n      dup3\n        /* \"#utility.yul\":7507:7519   */\n      div\n        /* \"#utility.yul\":7497:7519   */\n      swap1\n      pop\n        /* \"#utility.yul\":7564:7565   */\n      0x01\n        /* \"#utility.yul\":7558:7562   */\n      dup3\n        /* \"#utility.yul\":7554:7566   */\n      and\n        /* \"#utility.yul\":7585:7603   */\n      dup1\n        /* \"#utility.yul\":7575:7656   */\n      tag_206\n      jumpi\n        /* \"#utility.yul\":7641:7645   */\n      0x7f\n        /* \"#utility.yul\":7633:7639   */\n      dup3\n        /* \"#utility.yul\":7629:7646   */\n      and\n        /* \"#utility.yul\":7619:7646   */\n      swap2\n      pop\n        /* \"#utility.yul\":7575:7656   */\n    tag_206:\n        /* \"#utility.yul\":7703:7705   */\n      0x20\n        /* \"#utility.yul\":7695:7701   */\n      dup3\n        /* \"#utility.yul\":7692:7706   */\n      lt\n        /* \"#utility.yul\":7672:7690   */\n      dup2\n        /* \"#utility.yul\":7669:7707   */\n      sub\n        /* \"#utility.yul\":7666:7750   */\n      tag_207\n      jumpi\n        /* \"#utility.yul\":7722:7740   */\n      tag_208\n      tag_112\n      jump\t// in\n    tag_208:\n        /* \"#utility.yul\":7666:7750   */\n    tag_207:\n        /* \"#utility.yul\":7487:7756   */\n      pop\n        /* \"#utility.yul\":7436:7756   */\n      swap2\n      swap1\n      pop\n      jump\t// out\n\n    auxdata: 0xa2646970667358221220e4f6f71b0d694cd9e09c545daf217a65da8e8c532d7877fc83eb90d32621964c64736f6c634300080d0033\n}\n","bytecode":{"linkReferences":{},"object":"60806040523480156200001157600080fd5b5060405162000d8f38038062000d8f83398181016040528101906200003791906200012c565b80600260006101000a81548173ffffffffffffffffffffffffffffffffffffffff021916908373ffffffffffffffffffffffffffffffffffffffff16021790555081600381905550505062000173565b600080fd5b6000819050919050565b620000a1816200008c565b8114620000ad57600080fd5b50565b600081519050620000c18162000096565b92915050565b600073ffffffffffffffffffffffffffffffffffffffff82169050919050565b6000620000f482620000c7565b9050919050565b6200010681620000e7565b81146200011257600080fd5b50565b6000815190506200012681620000fb565b92915050565b6000806040838503121562000146576200014562000087565b5b60006200015685828601620000b0565b9250506020620001698582860162000115565b9150509250929050565b610c0c80620001836000396000f3fe60806040526004361061007b5760003560e01c80638a9cfd551161004e5780638a9cfd551461013c578063937e09b114610165578063d7bb99ba14610190578063d7d1bbdb1461019a5761007b565b806303441006146100805780630a144391146100a9578063481c6a75146100e657806382fde09314610111575b600080fd5b34801561008c57600080fd5b506100a760048036038101906100a2919061076a565b6101c3565b005b3480156100b557600080fd5b506100d060048036038101906100cb91906107f5565b6102fe565b6040516100dd919061083d565b60405180910390f35b3480156100f257600080fd5b506100fb61031e565b6040516101089190610867565b60405180910390f35b34801561011d57600080fd5b50610126610344565b6040516101339190610891565b60405180910390f35b34801561014857600080fd5b50610163600480360381019061015e9190610a30565b61034a565b005b34801561017157600080fd5b5061017a6104b8565b6040516101879190610891565b60405180910390f35b6101986104be565b005b3480156101a657600080fd5b506101c160048036038101906101bc919061076a565b61053f565b005b600260009054906101000a900473ffffffffffffffffffffffffffffffffffffffff1673ffffffffffffffffffffffffffffffffffffffff163373ffffffffffffffffffffffffffffffffffffffff161461021d57600080fd5b600060016000838152602001908152602001600020905060026005546102439190610afd565b81600401541161025257600080fd5b8060020160149054906101000a900460ff161561026e57600080fd5b8060020160009054906101000a900473ffffffffffffffffffffffffffffffffffffffff1673ffffffffffffffffffffffffffffffffffffffff166108fc82600101549081150290604051600060405180830381858888f193505050501580156102dc573d6000803e3d6000fd5b5060018160020160146101000a81548160ff0219169083151502179055505050565b60046020528060005260406000206000915054906101000a900460ff1681565b600260009054906101000a900473ffffffffffffffffffffffffffffffffffffffff1681565b60055481565b600260009054906101000a900473ffffffffffffffffffffffffffffffffffffffff1673ffffffffffffffffffffffffffffffffffffffff163373ffffffffffffffffffffffffffffffffffffffff16146103a457600080fd5b600460003373ffffffffffffffffffffffffffffffffffffffff1673ffffffffffffffffffffffffffffffffffffffff16815260200190815260200160002060009054906101000a900460ff166103fa57600080fd5b60006001600080600081548092919061041290610b2e565b91905055815260200190815260200160002090508381600001908051906020019061043e92919061067d565b50828160010181905550818160020160006101000a81548173ffffffffffffffffffffffffffffffffffffffff021916908373ffffffffffffffffffffffffffffffffffffffff16021790555060008160020160146101000a81548160ff0219169083151502179055506000816004018190555050505050565b60035481565b6003543410156104cd57600080fd5b6001600460003373ffffffffffffffffffffffffffffffffffffffff1673ffffffffffffffffffffffffffffffffffffffff16815260200190815260200160002060006101000a81548160ff0219169083151502179055506005600081548092919061053890610b2e565b9190505550565b6000600160008381526020019081526020016000209050600460003373ffffffffffffffffffffffffffffffffffffffff1673ffffffffffffffffffffffffffffffffffffffff16815260200190815260200160002060009054906101000a900460ff166105ac57600080fd5b8060030160003373ffffffffffffffffffffffffffffffffffffffff1673ffffffffffffffffffffffffffffffffffffffff16815260200190815260200160002060009054906101000a900460ff161561060557600080fd5b60018160030160003373ffffffffffffffffffffffffffffffffffffffff1673ffffffffffffffffffffffffffffffffffffffff16815260200190815260200160002060006101000a81548160ff02191690831515021790555080600401600081548092919061067490610b2e565b91905055505050565b82805461068990610ba5565b90600052602060002090601f0160209004810192826106ab57600085556106f2565b82601f106106c457805160ff19168380011785556106f2565b828001600101855582156106f2579182015b828111156106f15782518255916020019190600101906106d6565b5b5090506106ff9190610703565b5090565b5b8082111561071c576000816000905550600101610704565b5090565b6000604051905090565b600080fd5b600080fd5b6000819050919050565b61074781610734565b811461075257600080fd5b50565b6000813590506107648161073e565b92915050565b6000602082840312156107805761077f61072a565b5b600061078e84828501610755565b91505092915050565b600073ffffffffffffffffffffffffffffffffffffffff82169050919050565b60006107c282610797565b9050919050565b6107d2816107b7565b81146107dd57600080fd5b50565b6000813590506107ef816107c9565b92915050565b60006020828403121561080b5761080a61072a565b5b6000610819848285016107e0565b91505092915050565b60008115159050919050565b61083781610822565b82525050565b6000602082019050610852600083018461082e565b92915050565b610861816107b7565b82525050565b600060208201905061087c6000830184610858565b92915050565b61088b81610734565b82525050565b60006020820190506108a66000830184610882565b92915050565b600080fd5b600080fd5b6000601f19601f8301169050919050565b7f4e487b7100000000000000000000000000000000000000000000000000000000600052604160045260246000fd5b6108ff826108b6565b810181811067ffffffffffffffff8211171561091e5761091d6108c7565b5b80604052505050565b6000610931610720565b905061093d82826108f6565b919050565b600067ffffffffffffffff82111561095d5761095c6108c7565b5b610966826108b6565b9050602081019050919050565b82818337600083830152505050565b600061099561099084610942565b610927565b9050828152602081018484840111156109b1576109b06108b1565b5b6109bc848285610973565b509392505050565b600082601f8301126109d9576109d86108ac565b5b81356109e9848260208601610982565b91505092915050565b60006109fd82610797565b9050919050565b610a0d816109f2565b8114610a1857600080fd5b50565b600081359050610a2a81610a04565b92915050565b600080600060608486031215610a4957610a4861072a565b5b600084013567ffffffffffffffff811115610a6757610a6661072f565b5b610a73868287016109c4565b9350506020610a8486828701610755565b9250506040610a9586828701610a1b565b9150509250925092565b7f4e487b7100000000000000000000000000000000000000000000000000000000600052601260045260246000fd5b7f4e487b7100000000000000000000000000000000000000000000000000000000600052601160045260246000fd5b6000610b0882610734565b9150610b1383610734565b925082610b2357610b22610a9f565b5b828204905092915050565b6000610b3982610734565b91507fffffffffffffffffffffffffffffffffffffffffffffffffffffffffffffffff8203610b6b57610b6a610ace565b5b600182019050919050565b7f4e487b7100000000000000000000000000000000000000000000000000000000600052602260045260246000fd5b60006002820490506001821680610bbd57607f821691505b602082108103610bd057610bcf610b76565b5b5091905056fea2646970667358221220e4f6f71b0d694cd9e09c545daf217a65da8e8c532d7877fc83eb90d32621964c64736f6c634300080d0033","opcodes":"PUSH1 0x80 PUSH1 0x40 MSTORE CALLVALUE DUP1 ISZERO PUSH3 0x11 JUMPI PUSH1 0x0 DUP1 REVERT JUMPDEST POP PUSH1 0x40 MLOAD PUSH3 0xD8F CODESIZE SUB DUP1 PUSH3 0xD8F DUP4 CODECOPY DUP2 DUP2 ADD PUSH1 0x40 MSTORE DUP2 ADD SWAP1 PUSH3 0x37 SWAP2 SWAP1 PUSH3 0x12C JUMP JUMPDEST DUP1 PUSH1 0x2 PUSH1 0x0 PUSH2 0x100 EXP DUP2 SLOAD DUP2 PUSH20 0xFFFFFFFFFFFFFFFFFFFFFFFFFFFFFFFFFFFFFFFF MUL NOT AND SWAP1 DUP4 PUSH20 0xFFFFFFFFFFFFFFFFFFFFFFFFFFFFFFFFFFFFFFFF AND MUL OR SWAP1 SSTORE POP DUP2 PUSH1 0x3 DUP2 SWAP1 SSTORE POP POP POP PUSH3 0x173 JUMP JUMPDEST PUSH1 0x0 DUP1 REVERT JUMPDEST PUSH1 0x0 DUP2 SWAP1 POP SWAP2 SWAP1 POP JUMP JUMPDEST PUSH3 0xA1 DUP2 PUSH3 0x8C JUMP JUMPDEST DUP2 EQ PUSH3 0xAD JUMPI PUSH1 0x0 DUP1 REVERT JUMPDEST POP JUMP JUMPDEST PUSH1 0x0 DUP2 MLOAD SWAP1 POP PUSH3 0xC1 DUP2 PUSH3 0x96 JUMP JUMPDEST SWAP3 SWAP2 POP POP JUMP JUMPDEST PUSH1 0x0 PUSH20 0xFFFFFFFFFFFFFFFFFFFFFFFFFFFFFFFFFFFFFFFF DUP3 AND SWAP1 POP SWAP2 SWAP1 POP JUMP JUMPDEST PUSH1 0x0 PUSH3 0xF4 DUP3 PUSH3 0xC7 JUMP JUMPDEST SWAP1 POP SWAP2 SWAP1 POP JUMP JUMPDEST PUSH3 0x106 DUP2 PUSH3 0xE7 JUMP JUMPDEST DUP2 EQ PUSH3 0x112 JUMPI PUSH1 0x0 DUP1 REVERT JUMPDEST POP JUMP JUMPDEST PUSH1 0x0 DUP2 MLOAD SWAP1 POP PUSH3 0x126 DUP2 PUSH3 0xFB JUMP JUMPDEST SWAP3 SWAP2 POP POP JUMP JUMPDEST PUSH1 0x0 DUP1 PUSH1 0x40 DUP4 DUP6 SUB SLT ISZERO PUSH3 0x146 JUMPI PUSH3 0x145 PUSH3 0x87 JUMP JUMPDEST JUMPDEST PUSH1 0x0 PUSH3 0x156 DUP6 DUP3 DUP7 ADD PUSH3 0xB0 JUMP JUMPDEST SWAP3 POP POP PUSH1 0x20 PUSH3 0x169 DUP6 DUP3 DUP7 ADD PUSH3 0x115 JUMP JUMPDEST SWAP2 POP POP SWAP3 POP SWAP3 SWAP1 POP JUMP JUMPDEST PUSH2 0xC0C DUP1 PUSH3 0x183 PUSH1 0x0 CODECOPY PUSH1 0x0 RETURN INVALID PUSH1 0x80 PUSH1 0x40 MSTORE PUSH1 0x4 CALLDATASIZE LT PUSH2 0x7B JUMPI PUSH1 0x0 CALLDATALOAD PUSH1 0xE0 SHR DUP1 PUSH4 0x8A9CFD55 GT PUSH2 0x4E JUMPI DUP1 PUSH4 0x8A9CFD55 EQ PUSH2 0x13C JUMPI DUP1 PUSH4 0x937E09B1 EQ PUSH2 0x165 JUMPI DUP1 PUSH4 0xD7BB99BA EQ PUSH2 0x190 JUMPI DUP1 PUSH4 0xD7D1BBDB EQ PUSH2 0x19A JUMPI PUSH2 0x7B JUMP JUMPDEST DUP1 PUSH4 0x3441006 EQ PUSH2 0x80 JUMPI DUP1 PUSH4 0xA144391 EQ PUSH2 0xA9 JUMPI DUP1 PUSH4 0x481C6A75 EQ PUSH2 0xE6 JUMPI DUP1 PUSH4 0x82FDE093 EQ PUSH2 0x111 JUMPI JUMPDEST PUSH1 0x0 DUP1 REVERT JUMPDEST CALLVALUE DUP1 ISZERO PUSH2 0x8C JUMPI PUSH1 0x0 DUP1 REVERT JUMPDEST POP PUSH2 0xA7 PUSH1 0x4 DUP1 CALLDATASIZE SUB DUP2 ADD SWAP1 PUSH2 0xA2 SWAP2 SWAP1 PUSH2 0x76A JUMP JUMPDEST PUSH2 0x1C3 JUMP JUMPDEST STOP JUMPDEST CALLVALUE DUP1 ISZERO PUSH2 0xB5 JUMPI PUSH1 0x0 DUP1 REVERT JUMPDEST POP PUSH2 0xD0 PUSH1 0x4 DUP1 CALLDATASIZE SUB DUP2 ADD SWAP1 PUSH2 0xCB SWAP2 SWAP1 PUSH2 0x7F5 JUMP JUMPDEST PUSH2 0x2FE JUMP JUMPDEST PUSH1 0x40 MLOAD PUSH2 0xDD SWAP2 SWAP1 PUSH2 0x83D JUMP JUMPDEST PUSH1 0x40 MLOAD DUP1 SWAP2 SUB SWAP1 RETURN JUMPDEST CALLVALUE DUP1 ISZERO PUSH2 0xF2 JUMPI PUSH1 0x0 DUP1 REVERT JUMPDEST POP PUSH2 0xFB PUSH2 0x31E JUMP JUMPDEST PUSH1 0x40 MLOAD PUSH2 0x108 SWAP2 SWAP1 PUSH2 0x867 JUMP JUMPDEST PUSH1 0x40 MLOAD DUP1 SWAP2 SUB SWAP1 RETURN JUMPDEST CALLVALUE DUP1 ISZERO PUSH2 0x11D JUMPI PUSH1 0x0 DUP1 REVERT JUMPDEST POP PUSH2 0x126 PUSH2 0x344 JUMP JUMPDEST PUSH1 0x40 MLOAD PUSH2 0x133 SWAP2 SWAP1 PUSH2 0x891 JUMP JUMPDEST PUSH1 0x40 MLOAD DUP1 SWAP2 SUB SWAP1 RETURN JUMPDEST CALLVALUE DUP1 ISZERO PUSH2 0x148 JUMPI PUSH1 0x0 DUP1 REVERT JUMPDEST POP PUSH2 0x163 PUSH1 0x4 DUP1 CALLDATASIZE SUB DUP2 ADD SWAP1 PUSH2 0x15E SWAP2 SWAP1 PUSH2 0xA30 JUMP JUMPDEST PUSH2 0x34A JUMP JUMPDEST STOP JUMPDEST CALLVALUE DUP1 ISZERO PUSH2 0x171 JUMPI PUSH1 0x0 DUP1 REVERT JUMPDEST POP PUSH2 0x17A PUSH2 0x4B8 JUMP JUMPDEST PUSH1 0x40 MLOAD PUSH2 0x187 SWAP2 SWAP1 PUSH2 0x891 JUMP JUMPDEST PUSH1 0x40 MLOAD DUP1 SWAP2 SUB SWAP1 RETURN JUMPDEST PUSH2 0x198 PUSH2 0x4BE JUMP JUMPDEST STOP JUMPDEST CALLVALUE DUP1 ISZERO PUSH2 0x1A6 JUMPI PUSH1 0x0 DUP1 REVERT JUMPDEST POP PUSH2 0x1C1 PUSH1 0x4 DUP1 CALLDATASIZE SUB DUP2 ADD SWAP1 PUSH2 0x1BC SWAP2 SWAP1 PUSH2 0x76A JUMP JUMPDEST PUSH2 0x53F JUMP JUMPDEST STOP JUMPDEST PUSH1 0x2 PUSH1 0x0 SWAP1 SLOAD SWAP1 PUSH2 0x100 EXP SWAP1 DIV PUSH20 0xFFFFFFFFFFFFFFFFFFFFFFFFFFFFFFFFFFFFFFFF AND PUSH20 0xFFFFFFFFFFFFFFFFFFFFFFFFFFFFFFFFFFFFFFFF AND CALLER PUSH20 0xFFFFFFFFFFFFFFFFFFFFFFFFFFFFFFFFFFFFFFFF AND EQ PUSH2 0x21D JUMPI PUSH1 0x0 DUP1 REVERT JUMPDEST PUSH1 0x0 PUSH1 0x1 PUSH1 0x0 DUP4 DUP2 MSTORE PUSH1 0x20 ADD SWAP1 DUP2 MSTORE PUSH1 0x20 ADD PUSH1 0x0 KECCAK256 SWAP1 POP PUSH1 0x2 PUSH1 0x5 SLOAD PUSH2 0x243 SWAP2 SWAP1 PUSH2 0xAFD JUMP JUMPDEST DUP2 PUSH1 0x4 ADD SLOAD GT PUSH2 0x252 JUMPI PUSH1 0x0 DUP1 REVERT JUMPDEST DUP1 PUSH1 0x2 ADD PUSH1 0x14 SWAP1 SLOAD SWAP1 PUSH2 0x100 EXP SWAP1 DIV PUSH1 0xFF AND ISZERO PUSH2 0x26E JUMPI PUSH1 0x0 DUP1 REVERT JUMPDEST DUP1 PUSH1 0x2 ADD PUSH1 0x0 SWAP1 SLOAD SWAP1 PUSH2 0x100 EXP SWAP1 DIV PUSH20 0xFFFFFFFFFFFFFFFFFFFFFFFFFFFFFFFFFFFFFFFF AND PUSH20 0xFFFFFFFFFFFFFFFFFFFFFFFFFFFFFFFFFFFFFFFF AND PUSH2 0x8FC DUP3 PUSH1 0x1 ADD SLOAD SWAP1 DUP2 ISZERO MUL SWAP1 PUSH1 0x40 MLOAD PUSH1 0x0 PUSH1 0x40 MLOAD DUP1 DUP4 SUB DUP2 DUP6 DUP9 DUP9 CALL SWAP4 POP POP POP POP ISZERO DUP1 ISZERO PUSH2 0x2DC JUMPI RETURNDATASIZE PUSH1 0x0 DUP1 RETURNDATACOPY RETURNDATASIZE PUSH1 0x0 REVERT JUMPDEST POP PUSH1 0x1 DUP2 PUSH1 0x2 ADD PUSH1 0x14 PUSH2 0x100 EXP DUP2 SLOAD DUP2 PUSH1 0xFF MUL NOT AND SWAP1 DUP4 ISZERO ISZERO MUL OR SWAP1 SSTORE POP POP POP JUMP JUMPDEST PUSH1 0x4 PUSH1 0x20 MSTORE DUP1 PUSH1 0x0 MSTORE PUSH1 0x40 PUSH1 0x0 KECCAK256 PUSH1 0x0 SWAP2 POP SLOAD SWAP1 PUSH2 0x100 EXP SWAP1 DIV PUSH1 0xFF AND DUP2 JUMP JUMPDEST PUSH1 0x2 PUSH1 0x0 SWAP1 SLOAD SWAP1 PUSH2 0x100 EXP SWAP1 DIV PUSH20 0xFFFFFFFFFFFFFFFFFFFFFFFFFFFFFFFFFFFFFFFF AND DUP2 JUMP JUMPDEST PUSH1 0x5 SLOAD DUP2 JUMP JUMPDEST PUSH1 0x2 PUSH1 0x0 SWAP1 SLOAD SWAP1 PUSH2 0x100 EXP SWAP1 DIV PUSH20 0xFFFFFFFFFFFFFFFFFFFFFFFFFFFFFFFFFFFFFFFF AND PUSH20 0xFFFFFFFFFFFFFFFFFFFFFFFFFFFFFFFFFFFFFFFF AND CALLER PUSH20 0xFFFFFFFFFFFFFFFFFFFFFFFFFFFFFFFFFFFFFFFF AND EQ PUSH2 0x3A4 JUMPI PUSH1 0x0 DUP1 REVERT JUMPDEST PUSH1 0x4 PUSH1 0x0 CALLER PUSH20 0xFFFFFFFFFFFFFFFFFFFFFFFFFFFFFFFFFFFFFFFF AND PUSH20 0xFFFFFFFFFFFFFFFFFFFFFFFFFFFFFFFFFFFFFFFF AND DUP2 MSTORE PUSH1 0x20 ADD SWAP1 DUP2 MSTORE PUSH1 0x20 ADD PUSH1 0x0 KECCAK256 PUSH1 0x0 SWAP1 SLOAD SWAP1 PUSH2 0x100 EXP SWAP1 DIV PUSH1 0xFF AND PUSH2 0x3FA JUMPI PUSH1 0x0 DUP1 REVERT JUMPDEST PUSH1 0x0 PUSH1 0x1 PUSH1 0x0 DUP1 PUSH1 0x0 DUP2 SLOAD DUP1 SWAP3 SWAP2 SWAP1 PUSH2 0x412 SWAP1 PUSH2 0xB2E JUMP JUMPDEST SWAP2 SWAP1 POP SSTORE DUP2 MSTORE PUSH1 0x20 ADD SWAP1 DUP2 MSTORE PUSH1 0x20 ADD PUSH1 0x0 KECCAK256 SWAP1 POP DUP4 DUP2 PUSH1 0x0 ADD SWAP1 DUP1 MLOAD SWAP1 PUSH1 0x20 ADD SWAP1 PUSH2 0x43E SWAP3 SWAP2 SWAP1 PUSH2 0x67D JUMP JUMPDEST POP DUP3 DUP2 PUSH1 0x1 ADD DUP2 SWAP1 SSTORE POP DUP2 DUP2 PUSH1 0x2 ADD PUSH1 0x0 PUSH2 0x100 EXP DUP2 SLOAD DUP2 PUSH20 0xFFFFFFFFFFFFFFFFFFFFFFFFFFFFFFFFFFFFFFFF MUL NOT AND SWAP1 DUP4 PUSH20 0xFFFFFFFFFFFFFFFFFFFFFFFFFFFFFFFFFFFFFFFF AND MUL OR SWAP1 SSTORE POP PUSH1 0x0 DUP2 PUSH1 0x2 ADD PUSH1 0x14 PUSH2 0x100 EXP DUP2 SLOAD DUP2 PUSH1 0xFF MUL NOT AND SWAP1 DUP4 ISZERO ISZERO MUL OR SWAP1 SSTORE POP PUSH1 0x0 DUP2 PUSH1 0x4 ADD DUP2 SWAP1 SSTORE POP POP POP POP POP JUMP JUMPDEST PUSH1 0x3 SLOAD DUP2 JUMP JUMPDEST PUSH1 0x3 SLOAD CALLVALUE LT ISZERO PUSH2 0x4CD JUMPI PUSH1 0x0 DUP1 REVERT JUMPDEST PUSH1 0x1 PUSH1 0x4 PUSH1 0x0 CALLER PUSH20 0xFFFFFFFFFFFFFFFFFFFFFFFFFFFFFFFFFFFFFFFF AND PUSH20 0xFFFFFFFFFFFFFFFFFFFFFFFFFFFFFFFFFFFFFFFF AND DUP2 MSTORE PUSH1 0x20 ADD SWAP1 DUP2 MSTORE PUSH1 0x20 ADD PUSH1 0x0 KECCAK256 PUSH1 0x0 PUSH2 0x100 EXP DUP2 SLOAD DUP2 PUSH1 0xFF MUL NOT AND SWAP1 DUP4 ISZERO ISZERO MUL OR SWAP1 SSTORE POP PUSH1 0x5 PUSH1 0x0 DUP2 SLOAD DUP1 SWAP3 SWAP2 SWAP1 PUSH2 0x538 SWAP1 PUSH2 0xB2E JUMP JUMPDEST SWAP2 SWAP1 POP SSTORE POP JUMP JUMPDEST PUSH1 0x0 PUSH1 0x1 PUSH1 0x0 DUP4 DUP2 MSTORE PUSH1 0x20 ADD SWAP1 DUP2 MSTORE PUSH1 0x20 ADD PUSH1 0x0 KECCAK256 SWAP1 POP PUSH1 0x4 PUSH1 0x0 CALLER PUSH20 0xFFFFFFFFFFFFFFFFFFFFFFFFFFFFFFFFFFFFFFFF AND PUSH20 0xFFFFFFFFFFFFFFFFFFFFFFFFFFFFFFFFFFFFFFFF AND DUP2 MSTORE PUSH1 0x20 ADD SWAP1 DUP2 MSTORE PUSH1 0x20 ADD PUSH1 0x0 KECCAK256 PUSH1 0x0 SWAP1 SLOAD SWAP1 PUSH2 0x100 EXP SWAP1 DIV PUSH1 0xFF AND PUSH2 0x5AC JUMPI PUSH1 0x0 DUP1 REVERT JUMPDEST DUP1 PUSH1 0x3 ADD PUSH1 0x0 CALLER PUSH20 0xFFFFFFFFFFFFFFFFFFFFFFFFFFFFFFFFFFFFFFFF AND PUSH20 0xFFFFFFFFFFFFFFFFFFFFFFFFFFFFFFFFFFFFFFFF AND DUP2 MSTORE PUSH1 0x20 ADD SWAP1 DUP2 MSTORE PUSH1 0x20 ADD PUSH1 0x0 KECCAK256 PUSH1 0x0 SWAP1 SLOAD SWAP1 PUSH2 0x100 EXP SWAP1 DIV PUSH1 0xFF AND ISZERO PUSH2 0x605 JUMPI PUSH1 0x0 DUP1 REVERT JUMPDEST PUSH1 0x1 DUP2 PUSH1 0x3 ADD PUSH1 0x0 CALLER PUSH20 0xFFFFFFFFFFFFFFFFFFFFFFFFFFFFFFFFFFFFFFFF AND PUSH20 0xFFFFFFFFFFFFFFFFFFFFFFFFFFFFFFFFFFFFFFFF AND DUP2 MSTORE PUSH1 0x20 ADD SWAP1 DUP2 MSTORE PUSH1 0x20 ADD PUSH1 0x0 KECCAK256 PUSH1 0x0 PUSH2 0x100 EXP DUP2 SLOAD DUP2 PUSH1 0xFF MUL NOT AND SWAP1 DUP4 ISZERO ISZERO MUL OR SWAP1 SSTORE POP DUP1 PUSH1 0x4 ADD PUSH1 0x0 DUP2 SLOAD DUP1 SWAP3 SWAP2 SWAP1 PUSH2 0x674 SWAP1 PUSH2 0xB2E JUMP JUMPDEST SWAP2 SWAP1 POP SSTORE POP POP POP JUMP JUMPDEST DUP3 DUP1 SLOAD PUSH2 0x689 SWAP1 PUSH2 0xBA5 JUMP JUMPDEST SWAP1 PUSH1 0x0 MSTORE PUSH1 0x20 PUSH1 0x0 KECCAK256 SWAP1 PUSH1 0x1F ADD PUSH1 0x20 SWAP1 DIV DUP2 ADD SWAP3 DUP3 PUSH2 0x6AB JUMPI PUSH1 0x0 DUP6 SSTORE PUSH2 0x6F2 JUMP JUMPDEST DUP3 PUSH1 0x1F LT PUSH2 0x6C4 JUMPI DUP1 MLOAD PUSH1 0xFF NOT AND DUP4 DUP1 ADD OR DUP6 SSTORE PUSH2 0x6F2 JUMP JUMPDEST DUP3 DUP1 ADD PUSH1 0x1 ADD DUP6 SSTORE DUP3 ISZERO PUSH2 0x6F2 JUMPI SWAP2 DUP3 ADD JUMPDEST DUP3 DUP2 GT ISZERO PUSH2 0x6F1 JUMPI DUP3 MLOAD DUP3 SSTORE SWAP2 PUSH1 0x20 ADD SWAP2 SWAP1 PUSH1 0x1 ADD SWAP1 PUSH2 0x6D6 JUMP JUMPDEST JUMPDEST POP SWAP1 POP PUSH2 0x6FF SWAP2 SWAP1 PUSH2 0x703 JUMP JUMPDEST POP SWAP1 JUMP JUMPDEST JUMPDEST DUP1 DUP3 GT ISZERO PUSH2 0x71C JUMPI PUSH1 0x0 DUP2 PUSH1 0x0 SWAP1 SSTORE POP PUSH1 0x1 ADD PUSH2 0x704 JUMP JUMPDEST POP SWAP1 JUMP JUMPDEST PUSH1 0x0 PUSH1 0x40 MLOAD SWAP1 POP SWAP1 JUMP JUMPDEST PUSH1 0x0 DUP1 REVERT JUMPDEST PUSH1 0x0 DUP1 REVERT JUMPDEST PUSH1 0x0 DUP2 SWAP1 POP SWAP2 SWAP1 POP JUMP JUMPDEST PUSH2 0x747 DUP2 PUSH2 0x734 JUMP JUMPDEST DUP2 EQ PUSH2 0x752 JUMPI PUSH1 0x0 DUP1 REVERT JUMPDEST POP JUMP JUMPDEST PUSH1 0x0 DUP2 CALLDATALOAD SWAP1 POP PUSH2 0x764 DUP2 PUSH2 0x73E JUMP JUMPDEST SWAP3 SWAP2 POP POP JUMP JUMPDEST PUSH1 0x0 PUSH1 0x20 DUP3 DUP5 SUB SLT ISZERO PUSH2 0x780 JUMPI PUSH2 0x77F PUSH2 0x72A JUMP JUMPDEST JUMPDEST PUSH1 0x0 PUSH2 0x78E DUP5 DUP3 DUP6 ADD PUSH2 0x755 JUMP JUMPDEST SWAP2 POP POP SWAP3 SWAP2 POP POP JUMP JUMPDEST PUSH1 0x0 PUSH20 0xFFFFFFFFFFFFFFFFFFFFFFFFFFFFFFFFFFFFFFFF DUP3 AND SWAP1 POP SWAP2 SWAP1 POP JUMP JUMPDEST PUSH1 0x0 PUSH2 0x7C2 DUP3 PUSH2 0x797 JUMP JUMPDEST SWAP1 POP SWAP2 SWAP1 POP JUMP JUMPDEST PUSH2 0x7D2 DUP2 PUSH2 0x7B7 JUMP JUMPDEST DUP2 EQ PUSH2 0x7DD JUMPI PUSH1 0x0 DUP1 REVERT JUMPDEST POP JUMP JUMPDEST PUSH1 0x0 DUP2 CALLDATALOAD SWAP1 POP PUSH2 0x7EF DUP2 PUSH2 0x7C9 JUMP JUMPDEST SWAP3 SWAP2 POP POP JUMP JUMPDEST PUSH1 0x0 PUSH1 0x20 DUP3 DUP5 SUB SLT ISZERO PUSH2 0x80B JUMPI PUSH2 0x80A PUSH2 0x72A JUMP JUMPDEST JUMPDEST PUSH1 0x0 PUSH2 0x819 DUP5 DUP3 DUP6 ADD PUSH2 0x7E0 JUMP JUMPDEST SWAP2 POP POP SWAP3 SWAP2 POP POP JUMP JUMPDEST PUSH1 0x0 DUP2 ISZERO ISZERO SWAP1 POP SWAP2 SWAP1 POP JUMP JUMPDEST PUSH2 0x837 DUP2 PUSH2 0x822 JUMP JUMPDEST DUP3 MSTORE POP POP JUMP JUMPDEST PUSH1 0x0 PUSH1 0x20 DUP3 ADD SWAP1 POP PUSH2 0x852 PUSH1 0x0 DUP4 ADD DUP5 PUSH2 0x82E JUMP JUMPDEST SWAP3 SWAP2 POP POP JUMP JUMPDEST PUSH2 0x861 DUP2 PUSH2 0x7B7 JUMP JUMPDEST DUP3 MSTORE POP POP JUMP JUMPDEST PUSH1 0x0 PUSH1 0x20 DUP3 ADD SWAP1 POP PUSH2 0x87C PUSH1 0x0 DUP4 ADD DUP5 PUSH2 0x858 JUMP JUMPDEST SWAP3 SWAP2 POP POP JUMP JUMPDEST PUSH2 0x88B DUP2 PUSH2 0x734 JUMP JUMPDEST DUP3 MSTORE POP POP JUMP JUMPDEST PUSH1 0x0 PUSH1 0x20 DUP3 ADD SWAP1 POP PUSH2 0x8A6 PUSH1 0x0 DUP4 ADD DUP5 PUSH2 0x882 JUMP JUMPDEST SWAP3 SWAP2 POP POP JUMP JUMPDEST PUSH1 0x0 DUP1 REVERT JUMPDEST PUSH1 0x0 DUP1 REVERT JUMPDEST PUSH1 0x0 PUSH1 0x1F NOT PUSH1 0x1F DUP4 ADD AND SWAP1 POP SWAP2 SWAP1 POP JUMP JUMPDEST PUSH32 0x4E487B7100000000000000000000000000000000000000000000000000000000 PUSH1 0x0 MSTORE PUSH1 0x41 PUSH1 0x4 MSTORE PUSH1 0x24 PUSH1 0x0 REVERT JUMPDEST PUSH2 0x8FF DUP3 PUSH2 0x8B6 JUMP JUMPDEST DUP2 ADD DUP2 DUP2 LT PUSH8 0xFFFFFFFFFFFFFFFF DUP3 GT OR ISZERO PUSH2 0x91E JUMPI PUSH2 0x91D PUSH2 0x8C7 JUMP JUMPDEST JUMPDEST DUP1 PUSH1 0x40 MSTORE POP POP POP JUMP JUMPDEST PUSH1 0x0 PUSH2 0x931 PUSH2 0x720 JUMP JUMPDEST SWAP1 POP PUSH2 0x93D DUP3 DUP3 PUSH2 0x8F6 JUMP JUMPDEST SWAP2 SWAP1 POP JUMP JUMPDEST PUSH1 0x0 PUSH8 0xFFFFFFFFFFFFFFFF DUP3 GT ISZERO PUSH2 0x95D JUMPI PUSH2 0x95C PUSH2 0x8C7 JUMP JUMPDEST JUMPDEST PUSH2 0x966 DUP3 PUSH2 0x8B6 JUMP JUMPDEST SWAP1 POP PUSH1 0x20 DUP2 ADD SWAP1 POP SWAP2 SWAP1 POP JUMP JUMPDEST DUP3 DUP2 DUP4 CALLDATACOPY PUSH1 0x0 DUP4 DUP4 ADD MSTORE POP POP POP JUMP JUMPDEST PUSH1 0x0 PUSH2 0x995 PUSH2 0x990 DUP5 PUSH2 0x942 JUMP JUMPDEST PUSH2 0x927 JUMP JUMPDEST SWAP1 POP DUP3 DUP2 MSTORE PUSH1 0x20 DUP2 ADD DUP5 DUP5 DUP5 ADD GT ISZERO PUSH2 0x9B1 JUMPI PUSH2 0x9B0 PUSH2 0x8B1 JUMP JUMPDEST JUMPDEST PUSH2 0x9BC DUP5 DUP3 DUP6 PUSH2 0x973 JUMP JUMPDEST POP SWAP4 SWAP3 POP POP POP JUMP JUMPDEST PUSH1 0x0 DUP3 PUSH1 0x1F DUP4 ADD SLT PUSH2 0x9D9 JUMPI PUSH2 0x9D8 PUSH2 0x8AC JUMP JUMPDEST JUMPDEST DUP2 CALLDATALOAD PUSH2 0x9E9 DUP5 DUP3 PUSH1 0x20 DUP7 ADD PUSH2 0x982 JUMP JUMPDEST SWAP2 POP POP SWAP3 SWAP2 POP POP JUMP JUMPDEST PUSH1 0x0 PUSH2 0x9FD DUP3 PUSH2 0x797 JUMP JUMPDEST SWAP1 POP SWAP2 SWAP1 POP JUMP JUMPDEST PUSH2 0xA0D DUP2 PUSH2 0x9F2 JUMP JUMPDEST DUP2 EQ PUSH2 0xA18 JUMPI PUSH1 0x0 DUP1 REVERT JUMPDEST POP JUMP JUMPDEST PUSH1 0x0 DUP2 CALLDATALOAD SWAP1 POP PUSH2 0xA2A DUP2 PUSH2 0xA04 JUMP JUMPDEST SWAP3 SWAP2 POP POP JUMP JUMPDEST PUSH1 0x0 DUP1 PUSH1 0x0 PUSH1 0x60 DUP5 DUP7 SUB SLT ISZERO PUSH2 0xA49 JUMPI PUSH2 0xA48 PUSH2 0x72A JUMP JUMPDEST JUMPDEST PUSH1 0x0 DUP5 ADD CALLDATALOAD PUSH8 0xFFFFFFFFFFFFFFFF DUP2 GT ISZERO PUSH2 0xA67 JUMPI PUSH2 0xA66 PUSH2 0x72F JUMP JUMPDEST JUMPDEST PUSH2 0xA73 DUP7 DUP3 DUP8 ADD PUSH2 0x9C4 JUMP JUMPDEST SWAP4 POP POP PUSH1 0x20 PUSH2 0xA84 DUP7 DUP3 DUP8 ADD PUSH2 0x755 JUMP JUMPDEST SWAP3 POP POP PUSH1 0x40 PUSH2 0xA95 DUP7 DUP3 DUP8 ADD PUSH2 0xA1B JUMP JUMPDEST SWAP2 POP POP SWAP3 POP SWAP3 POP SWAP3 JUMP JUMPDEST PUSH32 0x4E487B7100000000000000000000000000000000000000000000000000000000 PUSH1 0x0 MSTORE PUSH1 0x12 PUSH1 0x4 MSTORE PUSH1 0x24 PUSH1 0x0 REVERT JUMPDEST PUSH32 0x4E487B7100000000000000000000000000000000000000000000000000000000 PUSH1 0x0 MSTORE PUSH1 0x11 PUSH1 0x4 MSTORE PUSH1 0x24 PUSH1 0x0 REVERT JUMPDEST PUSH1 0x0 PUSH2 0xB08 DUP3 PUSH2 0x734 JUMP JUMPDEST SWAP2 POP PUSH2 0xB13 DUP4 PUSH2 0x734 JUMP JUMPDEST SWAP3 POP DUP3 PUSH2 0xB23 JUMPI PUSH2 0xB22 PUSH2 0xA9F JUMP JUMPDEST JUMPDEST DUP3 DUP3 DIV SWAP1 POP SWAP3 SWAP2 POP POP JUMP JUMPDEST PUSH1 0x0 PUSH2 0xB39 DUP3 PUSH2 0x734 JUMP JUMPDEST SWAP2 POP PUSH32 0xFFFFFFFFFFFFFFFFFFFFFFFFFFFFFFFFFFFFFFFFFFFFFFFFFFFFFFFFFFFFFFFF DUP3 SUB PUSH2 0xB6B JUMPI PUSH2 0xB6A PUSH2 0xACE JUMP JUMPDEST JUMPDEST PUSH1 0x1 DUP3 ADD SWAP1 POP SWAP2 SWAP1 POP JUMP JUMPDEST PUSH32 0x4E487B7100000000000000000000000000000000000000000000000000000000 PUSH1 0x0 MSTORE PUSH1 0x22 PUSH1 0x4 MSTORE PUSH1 0x24 PUSH1 0x0 REVERT JUMPDEST PUSH1 0x0 PUSH1 0x2 DUP3 DIV SWAP1 POP PUSH1 0x1 DUP3 AND DUP1 PUSH2 0xBBD JUMPI PUSH1 0x7F DUP3 AND SWAP2 POP JUMPDEST PUSH1 0x20 DUP3 LT DUP2 SUB PUSH2 0xBD0 JUMPI PUSH2 0xBCF PUSH2 0xB76 JUMP JUMPDEST JUMPDEST POP SWAP2 SWAP1 POP JUMP INVALID LOG2 PUSH5 0x6970667358 0x22 SLT KECCAK256 0xE4 0xF6 0xF7 SHL 0xD PUSH10 0x4CD9E09C545DAF217A65 0xDA DUP15 DUP13 MSTORE8 0x2D PUSH25 0x77FC83EB90D32621964C64736F6C634300080D003300000000 "},"gasEstimates":{"creation":{"codeDepositCost":"616800","executionCost":"infinite","totalCost":"infinite"},"external":{"approveRequest(uint256)":"infinite","approvers(address)":"2868","approversCount()":"2496","contribute()":"51002","createRequest(string,uint256,address)":"infinite","finalizeRequest(uint256)":"infinite","manager()":"2559","minimumContribution()":"2451"}},"methodIdentifiers":{"approveRequest(uint256)":"d7d1bbdb","approvers(address)":"0a144391","approversCount()":"82fde093","contribute()":"d7bb99ba","createRequest(string,uint256,address)":"8a9cfd55","finalizeRequest(uint256)":"03441006","manager()":"481c6a75","minimumContribution()":"937e09b1"}},"storageLayout":{"storage":[{"astId":56,"contract":"Campaign.sol:Campaign","label":"numRequests","offset":0,"slot":"0","type":"t_uint256"},{"astId":61,"contract":"Campaign.sol:Campaign","label":"requests","offset":0,"slot":"1","type":"t_mapping(t_uint256,t_struct(Request)54_storage)"},{"astId":63,"contract":"Campaign.sol:Campaign","label":"manager","offset":0,"slot":"2","type":"t_address"},{"astId":65,"contract":"Campaign.sol:Campaign","label":"minimumContribution","offset":0,"slot":"3","type":"t_uint256"},{"astId":69,"contract":"Campaign.sol:Campaign","label":"approvers","offset":0,"slot":"4","type":"t_mapping(t_address,t_bool)"},{"astId":71,"contract":"Campaign.sol:Campaign","label":"approversCount","offset":0,"slot":"5","type":"t_uint256"}],"types":{"t_address":{"encoding":"inplace","label":"address","numberOfBytes":"20"},"t_address_payable":{"encoding":"inplace","label":"address payable","numberOfBytes":"20"},"t_bool":{"encoding":"inplace","label":"bool","numberOfBytes":"1"},"t_mapping(t_address,t_bool)":{"encoding":"mapping","key":"t_address","label":"mapping(address => bool)","numberOfBytes":"32","value":"t_bool"},"t_mapping(t_uint256,t_struct(Request)54_storage)":{"encoding":"mapping","key":"t_uint256","label":"mapping(uint256 => struct Campaign.Request)","numberOfBytes":"32","value":"t_struct(Request)54_storage"},"t_string_storage":{"encoding":"bytes","label":"string","numberOfBytes":"32"},"t_struct(Request)54_storage":{"encoding":"inplace","label":"struct Campaign.Request","members":[{"astId":41,"contract":"Campaign.sol:Campaign","label":"description","offset":0,"slot":"0","type":"t_string_storage"},{"astId":43,"contract":"Campaign.sol:Campaign","label":"amount","offset":0,"slot":"1","type":"t_uint256"},{"astId":45,"contract":"Campaign.sol:Campaign","label":"recipient","offset":0,"slot":"2","type":"t_address_payable"},{"astId":47,"contract":"Campaign.sol:Campaign","label":"complete","offset":20,"slot":"2","type":"t_bool"},{"astId":51,"contract":"Campaign.sol:Campaign","label":"approvals","offset":0,"slot":"3","type":"t_mapping(t_address,t_bool)"},{"astId":53,"contract":"Campaign.sol:Campaign","label":"approvalCount","offset":0,"slot":"4","type":"t_uint256"}],"numberOfBytes":"160"},"t_uint256":{"encoding":"inplace","label":"uint256","numberOfBytes":"32"}}},"userdoc":{"kind":"user","methods":{},"version":1}}